:10400000007F0020ED9F0000959E0000E99F0000CA
:10401000E99F0000E99F0000E99F0000E99F000080
:10402000000000000000000000000000E99F000008
:10403000E99F000000000000E99F0000E99F0000E8
:104040000000000000000000000000000000000070
:104050000000000000000000000000000000000060
:104060000000000000000000000000000000000050
:104070000000000000000000000000000000000040
:104080000000000000000000000000000000000030
:104090000000000000000000000000000000000020
:1040A0000000000000000000000000000000000010
:1040B0000000000000000000000000000000000000
:1040C00010B5054C237833B9044B13B10448AFF352
:1040D00000800123237010BD500300200000000069
:1040E000986B030008B5034B1BB103490348AFF3BA
:1040F000008008BD0000000054030020986B0300FE
:1041000010B50D4C0D49204607F086FE0C4920469F
:1041100007F082FE0B49204607F07EFE0A49204642
:1041200007F07AFE0949204607F076FE2046084946
:10413000BDE8104007F070BEFC0600208C0E0300A6
:10414000A70E0300B60E0300C80E0300EB0E03001B
:104150000C27030073B50D4D0D4C0E4E2846022161
:1041600002F0D6F929460C4D204601F09BFE32465E
:104170002146284602F066F8002300932A4633467B
:104180002146064800F066F802B070BD6C050020BC
:1041900080050020000000207C0400206C0300202B
:1041A00008B54FF416510C4807F036F80A4807F0E6
:1041B00031F80028FAD00949074807F02DFE0849D0
:1041C000054807F029FE074801F0D8FC06490248D7
:1041D000BDE8084007F020BEFC060020570F030092
:1041E000730F03006C0300207D0F03001FB51448FC
:1041F00007F059F8002811DD11490A2201A807F03B
:1042000095FE01A807F047FF0E4901A807F02FFF10
:1042100050B1FFF775FF01A807F0A0FE0A4801F0B2
:104220003DFC05B05DF804FB084901A807F01FFF3D
:104230000028EED10649024807F0EEFDEBE700BF8B
:10424000FC0600201D0F03006C030020D245030074
:10425000220F030010B58360029BC360C0E9001207
:1042600000234FF0FF32C0E92623C0F800210022CE
:10427000037443748374C0F89430C0E93033C0E9E8
:10428000323380F8D030C0E9353380F8DC30C0F804
:104290000421C0F8082180F80C3180F80D3110BDE0
:1042A00010B50446806803689B689847A068044975
:1042B0000368DB6A98470348BDE8104001F0FABF85
:1042C000BC100300DE100300406803681B68184739
:1042D00070B50446806803681B6B9847E0B104F131
:1042E000DD0529462022A06801F0E4FC2849284683
:1042F00025F0D7FF88B9A06826490368DB6A98478C
:104300000125A068A57403685B6B984784F8D050BA
:1043100008F02CFCC4F8CC0070BD1F49284625F0DD
:10432000C0FF0028E7D01D49284625F0BAFF98B104
:104330001B49284625F0B5FF70B1284626F03CFD04
:104340000028E9D0A06817490368DB689847A0688F
:10435000036829461B6917E0A068134903681B69B5
:104360009847A068114903681B699847A0681049DD
:1043700003681B699847A0680E4903681B69984742
:10438000A068094903681B69BDE87040184700BF71
:104390004A1403009C0F0300B40E03001D0F03001A
:1043A000D2450300701403002F18030013140300F8
:1043B0002F1403004F1403002DE9F04F87B004467B
:1043C00080683D49036800AF1B69C7F808D098476B
:1043D000206803685B689847054648B9A068374974
:1043E00003681B699847A5741C37BD46BDE8F08F6C
:1043F000431EFB6099466B46A3EBC0039D46E8460F
:104400000026AE4208DA20680368F2B208EBC60163
:104410009B6898470136F4E74FF0000AFB689A451D
:1044200028DA464600234B451FDAB34608360133E7
:10443000082231465846C7E9003324F0B9FF002866
:104440007B68F0DD0822594607F1100024F0BFFF19
:1044500008223146584624F0BAFF082207F110011D
:10446000304624F0B4FF7B68DDE70AF1010A09F168
:10447000FF39D3E70026AE420BDA2068036808EB69
:10448000C6010136DB6932469847142008F02AFB42
:10449000F1E7606801F0E8FEA068094903681B695C
:1044A0009847606803681B6898470023A374C4F8A2
:1044B000C830D7F808D097E7571703007D170300D7
:1044C0008F17030073B5044680681D4903681B6994
:1044D0009847206803685B68984700250646B54200
:1044E00011DA20680368EAB29B686946984740B1D0
:1044F000206803680022DB69694698470A2008F0B3
:10450000F1FA0135EBE7606801F0AEFEA0680D49F5
:1045100003681B699847A0680B4903681B699847A3
:10452000A0680A4903681B699847606803685B686C
:1045300098470023A374C4F8C83002B070BD00BF10
:10454000521203007312030098120300DC120300DE
:104550002DE9F0410025C0F8945004460068036836
:104560008CB05B688846984704AE0746BD4220DAA7
:1045700020680368EAB29B68314698472068036860
:1045800031469B699847431E092B10D8D4F89430C4
:1045900004EB0312C2E9070010463146082214302A
:1045A00024F015FFD4F894300133C4F89430013569
:1045B000DCE7002501AF4146C4F8C0501F22304659
:1045C0007D600195C7F807504FF0200826F00EFCDB
:1045D0008DF82F50304626F0EFFBA84206D97357CE
:1045E0002C2B08BF06F805800135F3E730461E493D
:1045F0001D4D27F089FA0126C8B124F01CF9431E8D
:10460000092B0DD8D4F8942000239A4208DD04EB3E
:104610000311C969814208D10CAB184400F82C6C15
:104620002946002027F070FAE6E70133EDE7012381
:10463000FA5C8AB1D4F89410002291420CDD04EBAC
:104640000210C06998420DD1D4F8C010481C28311E
:10465000C4F8C00044F8212001330B2BE8D10CB082
:10466000BDE8F0810132E8E7445A03002DE9F14F3B
:104670000446806803685B6A9847A068334903680A
:104680001B699847206803685B6898470746A068DD
:1046900003681B6927B92E4901B0BDE8F04F1847E0
:1046A0002C49DFF8C8A0DFF8C8909847A0682A49CD
:1046B00003681B6998470025BD4242DA20680368F9
:1046C000E9B21B6A9847061E05F10105F4DD606832
:1046D000036831465B6998478046606802683146E6
:1046E000926990478346A06802685146D268904715
:1046F000A0680268294652699047A0680268494646
:10470000D2689047A0680268314652699047A06815
:1047100012490268D2689047A0680268414652690F
:104720009047A0680E490368DB689847A068036853
:1047300059465B699847A0680A4903681B6998470E
:10474000BAE7A068084903681B69A5E7A917030031
:104750007D170300CC170300EF17030018180300A0
:104760001F180300291803002D180300425A0300E4
:104770001218030070B504468068036888B05B6A4D
:104780009847A0682B4903681B699847206803680D
:104790005B6898470546A06803681DB91B692649F0
:1047A000984734E0DB6825499847A06803682946A4
:1047B0005B699847A068224903681B69984708F01D
:1047C000D5F942F20F76054608F0D0F9401BB04209
:1047D0002AD820226946A06801F0B4FA0028F3D054
:1047E0001849684625F05DFD98B960680368DB6983
:1047F0009847A068144903681B699847A068134943
:1048000003681B699847606803681B68984708B08D
:1048100070BD0F49684625F044FD0028E5D0A0682A
:104820000C4903681B69BBE7A0680B4903681B6957
:10483000B6E700BF051303007D1703002213030032
:1048400055130300F3330300661303008F130300B3
:10485000BF130300C3130300EA1303002DE9F84F4D
:104860002DED028B04460068334F0368DFF8D0A0BB
:104870005B68DFF8D0809847002581464D4556DAC1
:10488000206803685FFA85FB1B6A59469847061E35
:1048900035DD2068036859465B699847606803689E
:1048A00031465B69B0EE408A984708EE900A60682E
:1048B000036831469B699847F8EEE88A07EE900A4C
:1048C000F4EEC88AF1EE10FA1BD5A06803683946E9
:1048D000DB689847A068036831465B699847A06821
:1048E00016490368DB689847A0680368B0EE480A79
:1048F000DB699847A068036841461B699847013502
:10490000BCE7F8EEE77AF4EEC87AF1EE10FAF6DDDD
:10491000A06803683946DB689847A0680368314699
:104920005B699847A06803685146DB68DBE7BDEC2C
:10493000028BBDE8F88F00BFF41D0300591103007E
:10494000731103006E11030010B50446806811490D
:104950000368DB6A9847606803681B6898472046CD
:10496000FFF77CFF60680368DB68984780B1A06848
:1049700009490368DB6A9847A06808490368DB6A4D
:104980009847A06804490368BDE81040DB6A1847EF
:1049900010BD00BFB60F030025100300ED0F03008C
:1049A00010B5044608F0E2F8D4F8C830C01A41F255
:1049B0008733984208D908F0D9F8C4F8C8002046CF
:1049C000BDE81040FFF7C0BF10BDFFFF10B590F865
:1049D000D0300446002B56D0A068304903681B69CC
:1049E0009847A0682E4903681B699847A0682D491D
:1049F00003681B699847A0682B4903681B6998479F
:104A0000A0682A4903681B699847A0682849036879
:104A10001B699847A068274903681B699847A068E5
:104A2000254903681B699847A068244903681B69E6
:104A30009847A068224903681B699847A0681749EE
:104A400003681B69984708F091F80023C4F8CC006C
:104A500084F8D03008F08AF8D4F8CC30C01A4EF67A
:104A60005F23984219D9A068164903681B699847C3
:104A7000A0680023A37403685B6B98472046BDE8D9
:104A80001040FFF761BF08F071F8D4F8CC30C01ABD
:104A900042F20F7398429FD8DCE710BD2D18030037
:104AA0008B140300A2140300C1140300E0140300DC
:104AB000FE1403001615030020150300361503002D
:104AC0006C150300A515030010B5044688B008F066
:104AD0004DF8D4F8CC30C01A4EF65F2398420FD967
:104AE000A0682B4903681B699847A0680023A3743A
:104AF00003685B6B98472046FFF726FF08B010BDA0
:104B000020226946A06801F01DF90028F6D001288E
:104B100038D19DF80030313B052B33D8684623F05F
:104B20008AFE0138052806D8DFE800F003121416C3
:104B300018270223A374A37C002BDFD00023237447
:104B4000012384F8D03008F011F8C4F8CC00D5E780
:104B50000323EFE70423EDE70523EBE7A0680D4906
:104B600003681B699847A0680023A37403685B6B04
:104B700098472046FFF7E8FEDDE70623A3740023ED
:104B80006374D8E7A068044903681B699847B5E7D0
:104B9000A5150300FB10030025110300F0B5044622
:104BA0009DB007F0E3FFD4F8CC30C01A4EF65F2377
:104BB00098420FD9A068884903681B699847002369
:104BC000A068A37403685B6B98472046FFF7BCFEA0
:104BD0001DB0F0BD257C002D2AD1A06803685B6A5A
:104BE0009847A0687D4903681B6998472068036857
:104BF0005B6898470646B54238DA20680368EAB22F
:104C00009B680CA99847206803680CA99B69984782
:104C10000138092828D80A23714A40210CA825F018
:104C20007DFAA06803680CA91B69984701232374C7
:104C3000237C012B6AD1202204A9A06801F082F80C
:104C4000002863D004A823F0F6FD054698B9A068B3
:104C5000644903681B699847A068A57403685B6B87
:104C60009847C4F8C850B0E70135C4E7A0685E496A
:104C700003681B69A2E7431E092B00F29D80206890
:104C800003685B68984700260746BE4280F288802A
:104C900020680368F2B29B680CA9984720680368F3
:104CA0000CA99B699847A84278D108220CA90DEB62
:104CB000020024F08CFB08220DEB020104F1140029
:104CC00024F085FB2068036802A99B699847474A3E
:104CD0000090C4E907052B4640210CA825F01EFAD8
:104CE000A06803680CA91B699847606803689B6803
:104CF00098470A233E4A40210CA825F00FFAA068E5
:104D000003680CA9DB68984702232374237C022BD9
:104D10007FF45EAF202204A9A06801F013F80028F8
:104D20003FF456AF04A823F086FD431E092B054629
:104D300047D82068036829465B6A984706460028DA
:104D40003FD1082204F114010DEB020024F03FFBD7
:104D5000206803682A46DB6902A99847142007F0F7
:104D6000C1FE606801F080FAE369224A00934021A5
:104D7000236A01950CA825F0D1F9A06803680CA955
:104D80001B699847606803681B689847A068A67409
:104D900003685B6B9847C4F8C86016E7013674E790
:104DA0002B464021144A0CA825F0B8F9A0680368E6
:104DB0001B690CA99847A9E7A068104903681B69FB
:104DC000F8E7A0680E4903681B69984707F0CEFE14
:104DD000C4F89C00FCE600BFA5150300981A030068
:104DE000BC1A0300561B0300031B0300771B0300C0
:104DF000A41B0300261C0300BA1B0300FD1B0300B9
:104E00004E1C0300F0B5057CADB00446002D2CD13E
:104E1000806803685B6A9847A068504903681B690B
:104E20009847206803685B6898470646AE4237DDBE
:104E300020680368EAB29B681CA998472068036849
:104E40001CA99B6998470138092827D8606803681E
:104E50001B689847A068424903681B699847032369
:104E6000237407F083FEC4F89C00237C032B40F0DE
:104E7000968007F07BFED4F89C30C01A4EF6602373
:104E800098421DD9A068374903681B6998470023D9
:104E9000A068A37403685B6B98470FE00135C5E712
:104EA000A068314903681B6998470023A068A37470
:104EB00003685B6B98472046FFF746FD2DB0F0BDB9
:104EC00020221CA9A06800F03DFF002867D02749D8
:104ED0001CA825F0E6F9054660B9A06824490368D6
:104EE0001B699847A068A57403685B6B9847C4F872
:104EF000C850E0E720461CA9FFF72AFBA068D4F8B9
:104F0000C050036825B91B691A4998472574D5E72D
:104F1000DB681949194F984704F1A0060025D4F819
:104F2000C030AB422CDD56F8043B04EB03130A22DD
:104F30000CA9186A07F04EFDA06803680CA9DB688D
:104F40009847D4F8C030013B9D4204DAA06803685A
:104F50003946DB6898470135E1E700BF4D1803008B
:104F600070180300C9180300031B0300E269030063
:104F7000DC180300E81803001519030028190300C2
:104F8000A06803685B6A9847A0686A490368DB68A1
:104F900098470423237407F0E9FDC4F89C00237CA0
:104FA000042B34D107F0E2FDD4F89C30C01A4EF641
:104FB000602398423FF666AF20220CA9A06800F05B
:104FC000C1FE20B35C490CA825F06BF9002840F025
:104FD0008980C4F8C40005236068237403689B6853
:104FE0009847D4F8C430554A2833402154F8233028
:104FF00004EB03131CA81B6A25F090F8A068036853
:105000001CA9DB68984707F0B1FDC4F89C00237C1D
:10501000052B7FF453AF07F0A9FDD4F89C30C01ADC
:105020004EF6602398423FF62DAF202204A9A068D7
:1050300000F088FE00283FF441AF04A823F0FBFBFA
:10504000431E092B06465ED82068036831465B6A1A
:1050500098470746002856D1D4F8C4302833082290
:1050600054F8235004EB051114310DEB020024F029
:10507000AEF9206803683246DB6902A9984714201C
:1050800007F030FD04EB0515606801F0EDF80096BF
:105090002B4A2B6A40210CA825F040F8A068036831
:1050A0000CA91B699847D4F8C430D4F8C020013348
:1050B0009342C4F8C43030DA606803689B6898474C
:1050C000D4F8C4301D4A2833402154F8233004EB6F
:1050D00003131CA81B6A25F021F8A06803681CA90B
:1050E000DB6814E0A068174903681B69984700252E
:1050F000A068257403685B6B9847C4F8C8502046C5
:10510000FFF722FC83E7A0680F4903681B699847F3
:1051100007F02CFDC4F89C00D0E6A0680B4903689A
:105120001B699847606803681B689847A774C4F8B0
:10513000C870C3E62B190300F333030052190300B0
:1051400094190300731903004E1C0300B3190300E4
:1051500010B5044607F00AFDD4F8CC30C01A4EF65C
:105160005F2398420FD9A068094903681B699847D3
:10517000A0680023A37403685B6B98472046BDE8D2
:105180001040FFF7E1BB2046BDE81040FFF73ABEF4
:10519000A515030010B590F8D0300446002B51D06F
:1051A000A0682E4903681B699847A0682C490368CA
:1051B0001B699847A0682B4903681B699847A0683A
:1051C000294903681B699847A068284903681B6937
:1051D0009847A068264903681B699847A068254935
:1051E00003681B699847A068234903681B699847AF
:1051F000A068224903681B699847A068174903689B
:105200001B69984707F0B2FC0023C4F8CC0084F86F
:10521000D03007F0ABFCD4F8CC30C01A4EF65F2388
:10522000984219D9A068164903681B699847A06875
:105230000023A37403685B6B98472046BDE81040C9
:10524000FFF782BB07F092FCD4F8CC30C01A42F2D0
:105250000F739842A4D8DCE710BD00BF2D180300DF
:105260008E160300A7160300C3160300DB16030007
:10527000F61603000A1703001F1703006C1503003E
:10528000A515030010B5044688B007F06FFCD4F8EC
:10529000CC30C01A4EF65F2398420FD9A068294936
:1052A00003681B699847A0680023A37403685B6BBD
:1052B00098472046FFF748FB08B010BD20226946FA
:1052C000A06800F03FFD0028F6D0012833D19DF8FA
:1052D0000030313B042B2ED8684623F0ACFA01385D
:1052E00004280CD8DFE800F00313181C2000072363
:1052F000A374002363744FF0FF33C4F8003101231B
:1053000084F8D03007F032FCC4F8CC00D4E708238E
:10531000A37400236374F2E72046FFF7A7F9EEE7D2
:105320002046FFF727FAEAE7A068074903681B69E8
:1053300098470123ECE7A068044903681B69984774
:10534000BAE700BFA51503007C1C0300941C0300F2
:105350002DE9F04F044693B007F008FCD4F8CC30A8
:10536000C01A4EF65F239842A0680FD903688C4993
:105370001B699847A0680023A37403685B6B984778
:105380002046FFF7E1FA13B0BDE8F08F657C002DF1
:1053900072D103685B6A9847A068824903681B69F9
:1053A0009847206803685B6898470646A0680368CA
:1053B0001B6926B97C4998470623A374E3E77B4918
:1053C000DFF820A2DFF820929847B54242DA206841
:1053D0000368E9B21B6A9847071E05F10105F4DD71
:1053E0006068036839465B69984780466068026870
:1053F0003946926990478346A06802685146D26850
:105400009047A0680268294652699047A0680268E0
:105410004946D2689047A068026839465269904769
:10542000A06863490268D2689047A0680268414654
:1054300052699047A0685F490368DB689847A06895
:10544000036859465B699847A0685B4903681B6914
:105450009847BAE73346594A402102A824F05EFE35
:10546000A068036802A91B6998470123637407F0C9
:105470007DFBC4F8CC0086E7202202A900F062FC84
:10548000002880D04E4902A824F00BFF48B9A0683C
:105490004C4903681B6998470623A374002363746F
:1054A00071E7494902A824F0FCFE0028EFD0637C94
:1054B000012B29D102A823F0BEF905462068036814
:1054C0005B689847002D0346A06818DD9D4216DCF6
:1054D0006B1EC4F8003103683C49DB689847A0683C
:1054E000036829469B699847A068394903681B6986
:1054F000984702236374002384F80C31B7E70368EC
:1055000034491B6998473EE7022B2BD102A823F0B0
:1055100092F900F13703B42B0546A06800F28680AB
:1055200007EE905AF8EEE77A0123C4ED417A84F849
:105530000C3103682849DB689847A068036829464E
:105540005B699847A0681C4903681B699847A06875
:10555000224903681B69984703236374002384F876
:105560000D3184E7032B7FF40EAF02A823F063F91B
:1055700000F13703B42B0546A06857D807EE905AC0
:1055800094F80C31F8EEE77A83B394ED417AB4EEF7
:10559000E77AF1EE10FA29D8036811491B69B1E7DF
:1055A000C81C0300061D0300321D0300611D03001B
:1055B000791D0300841D0300291803008F1D0300BB
:1055C0003D460300BC1D0300E41D0300EB1D03006A
:1055D000FC1D0300451E0300671E03007F1E030021
:1055E000001F0300F41D0300721D03000123C4ED1E
:1055F000427A84F80D3103682C49DB689847A0682B
:10560000036829465B699847A068294903681B69B4
:105610009847206894F8001103681B6A9847061E93
:1056200008DCA068234903681B692FE0036822494E
:105630001B6967E76068036831465B699847054600
:105640006068036831469B69984794F80C210346CB
:105650003AB1D4ED417AFDEEE77ACDED017A9DF9CC
:10566000045094F80D213AB1D4ED427AFDEEE77A78
:10567000CDED017A9DF90430606802683146176902
:105680002A46B847A0680D4903681B699847A06877
:105690000B4903681B699847606803681B68984753
:1056A000A068084903681B69F5E600BF3B1F0300BB
:1056B00029180300771F0300C71E0300521F0300B1
:1056C000B51F0300C71D03002DE9F047044692B043
:1056D00007F04CFAD4F8CC30C01A4EF65F2398424B
:1056E000A0680FD9036892491B699847A0680023F6
:1056F000A37403685B6B98472046FFF725F912B047
:10570000BDE8F087657C002D2DD103685B6A984762
:10571000A068884903681B699847206803685B682C
:105720009847034638B9A068834903681B699847BE
:105730000623A374E3E7814A402102A824F0EEFC8B
:10574000A068036802A91B699847A0687C490368A0
:105750001B6998470223637484F80C5107F006FA1A
:10576000C4F8CC00CBE7202202A900F0EBFA002815
:10577000C5D0744902A824F094FD48B9A0687249C4
:1057800003681B6998470623A37400236374B6E774
:105790006E4902A824F085FD0028EFD0637C022B1F
:1057A0002BD102A823F047F800F13703B42B0546AC
:1057B000A06800F29A8007EE905AF8EEE77A01238B
:1057C000C4ED417A84F80C3103686149DB6898477D
:1057D000A068036829465B699847A0685D4903682B
:1057E0001B699847A0685C4903681B6998470323B5
:1057F0006374002384F80D31B0E7032B7FF47FAF8F
:1058000002A823F018F800F13703B42B0546A0686E
:105810006BD807EE905A94F80C31F8EEE77A5BB14A
:1058200094ED417AB4EEE77AF1EE10FA04D8036809
:105830004A491B69984762E70123C4ED427A84F81C
:105840000D3103684649DB689847A068036829461C
:105850005B699847A0683F4903681B6998472068BF
:1058600003685B68984794F80C318146A068002B68
:105870003FD003683B491B69984700252F464D459B
:1058800044DA20680368E9B21B6A9847B0F100085F
:1058900029DD6068036841465B6998470646606891
:1058A000036841469B69984794F80C2103463AB136
:1058B000D4ED417AFDEEE77ACDED017A9DF90460F1
:1058C00094F80D213AB1D4ED427AFDEEE77ACDEDB0
:1058D000017A9DF90430606802684146D2F810A050
:1058E0003246D04701370135C9E703681E491B69B5
:1058F000A0E794F80D31002BBBD103681B491B694D
:105900009847A0681A4903681B693BE7002FF8D045
:10591000A068184903681B699847A068164903687E
:105920001B699847606803681B689847E9E700BFF0
:10593000C81C0300DB190300321D0300FC1903001F
:10594000FC1D03003D460300BC1D0300E41D0300D5
:10595000671E0300291803007F1E0300001F0300B9
:105960003B1F03003D1A0300C71E0300251A030056
:10597000C71D0300521F0300631A030008B500236C
:1059800080F8DC30044680680C4903680C4D1B69C4
:105990009847A0680B4903681B699847A0680A49A3
:1059A00003681B699847A068036829461B699847E4
:1059B00042F2107007F096F8F5E700BF8711030078
:1059C00029120300B5110300F111030038B590F856
:1059D000DC300446002B45D007F0C8F8D4F8D430AA
:1059E000C01A47F230539842A06806D90368254987
:1059F0001B6998472046FFF7C1FFD4F8D8302249E9
:105A00000133C4F8D8300368DB689847A068D4F83D
:105A1000D81003685B699847A0681C490368DB6875
:105A20009847A068036805219B6998472068036828
:105A30001B689847206803685B689847051E12DD5D
:105A4000A06813490368DB689847A0680368294683
:105A50005B699847A0680F4903681B699847002352
:105A600084F8DC3038BDD4F8D830042B04DDA068CD
:105A7000094903681B69BCE74FF4FA60BDE8384088
:105A800007F030B8D6150300081603001F160300F0
:105A9000241603002B1603005216030010B590F8CD
:105AA000DC3004461BB1BDE81040FFF78FBF837C9C
:105AB000082B33D8DFE803F0050C13171B1F232A2C
:105AC0002E00FEF76DFF2046BDE81040FEF700BC3B
:105AD000FEF77CFF2046BDE81040FEF7F5BFBDE8AD
:105AE0001040FFF75BB8BDE81040FFF731BBBDE8E1
:105AF0001040FEF761BCBDE81040FEF7E3BCFFF7C5
:105B000049FB2046BDE81040FFF7BCBBBDE8104094
:105B1000FFF71EBCBDE81040FFF7D6BD10BDFFFF6C
:105B200010B504468068094903681B69984707F067
:105B30001DF80023C4F8D8300123C4F8D40084F839
:105B4000DC302046BDE81040FFF740BF9D10030049
:105B500010B50446006803681B689847206803680E
:105B60005B68984738B9044800F080FB2046BDE8E0
:105B70001040FFF7D5BF10BD8310030010B50446D9
:105B8000FEF78EFB2046FFF7E3FF2046FEF79CFB67
:105B90000023A37410BD7047014806F025B900BF6B
:105BA000FC060020014806F037B900BFFC060020C3
:105BB000014806F021B900BFFC0600201FB50A22EB
:105BC000084601A906F006FF01A9034806F00CF9F2
:105BD00005B05DF804FB00BFFC0600201FB50A22DB
:105BE000084601A906F0F6FE01A9034806F014F9DB
:105BF00005B05DF804FB00BFFC0600201FB510EEE9
:105C0000100A22F0C9F86A4641EC100B0221042068
:105C100006F090FE6946034806F0E6F805B05DF828
:105C200004FB00BFFC0600201FB510EE100A22F096
:105C3000B3F86A4641EC100B0221042006F07AFE0C
:105C40006946034806F0E8F805B05DF804FB00BFBC
:105C5000FC060020014806F0C3B800BFFC06002087
:105C6000014806F0CFB800BFFC06002010B50421A3
:105C7000044609F0B3F8204610BDFFFF10B54FF4FD
:105C8000E1310548044C05F0C7FA204605F0C2FA98
:105C90000028FAD010BD00BFFC06002008B504485B
:105CA00005F001FB0028D4BF0020012008BD00BF83
:105CB000FC06002070B522480C46154605F0F3FAA4
:105CC000002838DD6B1E22460A211D4806F014F913
:105CD00000232354013825181E46A54214D2264617
:105CE000354616F9010BC0B9A5421BD12546204601
:105CF00025F062F82E1BB0421FD995F9000026F05E
:105D0000B2F805F8010BF2E795F9000023F078F9F5
:105D10000028E4D005F80169DFE723F071F90028D5
:105D2000DED1E1E7284625F047F82946421C204607
:105D300023F058FBDAE7002070BD0120FCE700BF2C
:105D4000FC060020F8B50D4E0D460024571E3046C7
:105D500005F0A9FA70B1A7420CD9304605F004FB52
:105D600040B20A2806D00D28F1D026F07CF828553C
:105D70000134ECE700232B552046F8BDFC0600203B
:105D800010B5054C044805F08EFA18B1204605F010
:105D9000EBFAF7E710BD00BFFC06002013B503685F
:105DA0000A469B6869460446984730B123686946AD
:105DB0001B692046984702B010BD9FED010AFAE723
:105DC0000000FEC213B503680A469B686946044694
:105DD000984730B1236869469B692046984702B0CE
:105DE00010BD4FF0FF30FAE7043000F080BD08B579
:105DF000043000F09BFC08BD043000F076BC07B511
:105E0000011D684600F0F7FD03B05DF804FB0022B9
:105E1000043000F075BE08B5043000F078FE431E73
:105E20009BB20A2B28BF002008BD4B1E092B2DE971
:105E3000F34104460F4617D803685B68984700266D
:105E40008046B04515DD2368F2B29B68694620465E
:105E50009847054630B1236869469B6920469847B4
:105E6000874202D00136ECE70125284602B0BDE8A2
:105E7000F0810025F9E70A2A13B511D8041D12B2E2
:105E8000204600F053FE642006F02CFE68462146B2
:105E900000F0B1FD642002B0BDE8104006F022BE63
:105EA00002B010BD10B5044B044640F8043B00F0AE
:105EB000E9FB204610BD00BF2C200300007B70478B
:105EC00010B54C1E092C9EBF401880F8D82080F8D1
:105ED000E33010BD4B1E092B9ABF401890F9D80033
:105EE0007D2070474B1E092B9ABF401890F9E300A4
:105EF0006FF03600704700F1D8037D21E330C922EE
:105F000003F8011B83429A72FAD170472DE9F04FD2
:105F10004149424FDFF82091DFF820A1B5B0064695
:105F20003F4805F06FFF3F493D4805F06BFF3A4998
:105F30003B4805F067FF06F114040025237B01357B
:105F4000A3B92B46384A802114A824F0E7F814A9F5
:105F5000334805F061FF0A2D04F11404EED12E49F7
:105F60002F4805F04FFF35B0BDE8F08F1C2200210F
:105F70000DA80DF1300B0C9123F04DFA5946204637
:105F800000F0AAF9A06821F007FF0DF1240841EC08
:105F9000100B42460221042006F0CCFC7319D4ED0C
:105FA000027A93F9D82093F9E30007EE102AF8EE6D
:105FB000C76A07EE100AF4EEE67AF1EE10FAB8EED0
:105FC000C77A27DCF4EEC77A1849194BF1EE10FABC
:105FD00058BF0B46F4EEE67A54F8041C0091F1EE3B
:105FE00010FAF4EEC77ACCBF39464946F1EE10FA02
:105FF0004CBFBE46D646CDE90410CDE906E3CDE957
:106000000282CDF804B02B460A4A802114A824F05D
:1060100085F89CE7064BDDE7642003006D22030052
:10602000FC060020C2200300952103007822030013
:10603000562003005C210300742203005420030057
:10604000F0B585B001AD00236B600193C5F8073052
:1060500000F1C802012190F8203023B1036904AC9B
:10606000234403F80C1C14309042F4D119491A4807
:10607000194E1A4F05F0B4FE01242B5D43B12146A1
:106080000A22304605F012FF3946304605F0A8FED8
:1060900001340B2CF1D110480F4E104F05F0ACFE1F
:1060A0000F490D4805F09CFE01242B5D43B92146A4
:1060B0000A22304605F0FAFE3946304605F090FED9
:1060C00001340B2CF1D1044805B0BDE8F04005F0D7
:1060D00093BE00BF42210300FC060020762203008D
:1060E000092203002DE9F047037B9AB0054633B936
:1060F0002549264805F086FE1AB0BDE8F0872449F8
:106100002248DFF89490DFF8848005F07BFE214977
:106110001E4805F077FE1E491C4805F073FE6868AE
:1061200003685B68984700248246A2452ADD6868B8
:106130000368E6B29B68324602A9984708B9013461
:10614000F3E76868036831461B6A9847431E092BCA
:106150000646F4D914220DEB0200002104AF04918D
:1061600023F059F9394602A800F0B6F800973346F3
:106170004A4640210AA823F0D1FF0AA9404605F06B
:106180004BFEDCE70249B4E785220300FC06002051
:106190002D2203004D2203001F2203002DE9F047AA
:1061A0002DED028B044682B0034600F1C8020025A3
:1061B0004FF0FF3183F82050196114339A42F9D11E
:1061C000606803685B689847824660680368DB68BC
:1061D0009847002625734FF001084FF014095645E3
:1061E0002ADA60680368F5B29B682A4669469847D0
:1061F00008B90136F3E76068036829461B6A9847C7
:1062000007466068036869461B6998477D1E092D2B
:10621000B0EE408A0DD80822694609FB074023F0FA
:10622000D6F809FB054383ED078A1F6183F82080B8
:10623000DFE784F80C80DCE702B0BDEC028BBDE840
:10624000F087FFFF10B5074B8260C0E900310023E3
:1062500004460373FFF74FFE2046FFF79FFF2046DB
:1062600010BD00BFA8220300FFF798BF38B5064C49
:1062700006490546204605F0B3FD29462046BDE8FF
:10628000384005F0C9BD00BFFC0600201223030002
:1062900038B5064C06490546204605F0A1FD2946BD
:1062A0002046BDE8384005F0ADBD00BFFC0600202B
:1062B0001223030038B5064C06490546204605F072
:1062C0008FFD29462046BDE8384005F0A5BD00BF3A
:1062D000FC0600200A2303002DE9F84F0025DFF813
:1062E00070A081460E462C464FF03A0B06EB040890
:1062F00019F805305246C4F11801404623F00EFF4C
:106300000028EFB207DA1048FFF7C2FF002388F831
:106310000030BDE8F88F0444172CF4DCFB070CD5E3
:10632000072F0AD0172C05D10848FFF7B1FF00232B
:10633000F375EEE706F804B001340135082DD5D128
:1063400000233355E5E700BFCD220300EC22030014
:10635000C8220300014808F043BD00BFA405002087
:10636000014808F0C9BD00BFA405002038B5056884
:1063700072B6EDB20021284606F0A4FA62B67D247A
:10638000013C14F0FF0428D0022006F0A7FB2846A9
:1063900006F0BCFA0028F3D072B60021284606F0B9
:1063A000A9FA0121284606F08DFA62B64FF4F07082
:1063B00006F094FB72B60021284606F083FA4620C8
:1063C00006F08CFB284606F0A1FAB0FA80F46409C6
:1063D00062B64FF4CD7006F081FB204638BD10B593
:1063E00011F00101047815D072B60021204606F0A4
:1063F00081FA0121204606F065FA0A2006F06EFBBC
:106400000121204606F076FA62B63720BDE810403A
:1064100006F064BB72B6204606F06CFA01212046F5
:1064200006F050FA412006F059FB0121204606F003
:1064300061FA62B60520E9E710B5046872B6E4B205
:106440002046012106F03EFA0021204606F052FACD
:10645000032006F043FB0021204606F033FA0A2011
:1064600006F03CFB204606F051FA044662B63520A1
:1064700006F034FB204610BD2DE9F0410546884664
:1064800016460827012418EA040F14BF0121002131
:106490002846FFF7A4FF6400013FE4B2F3D14EB9F0
:1064A00072B63146287806F00DFA3146287806F0A3
:1064B00021FA62B6BDE8F081F8B507460826002546
:1064C00001243846FFF7B8FF00B125436400013EC0
:1064D000E4B2F6D12846F8BD70B500220C4655212D
:1064E0000646FFF7C9FF651E073415F8011F002295
:1064F0003046FFF7C1FFA542F7D170BD0022CC2185
:10650000FFF7BABF00238374C0E9023303827047E8
:1065100038B50D4604460021284606F0D3F900237D
:10652000256063602046BDE83840FFF7EBBF2DE9EA
:10653000F047867C04468946154616B9FFF716FFD4
:1065400020B90020A0742082BDE8F0876DB33246E8
:10655000F0212046FFF790FF01260027BA46354676
:106560002046FFF769FF80462046FFF765FFB8F138
:10657000010F1DD101283BD1402DE2D984F810A094
:10658000BAF1000F01D10123A374237A002BD8D0D4
:1065900004F1080309F1FF31103413F8012B01F85D
:1065A000012FA342F9D10120CEE72A46EC21D0E702
:1065B000804504EB070310D1227CAA4212D91A7A33
:1065C000164214BF4FF001084FF00008B8F1000F59
:1065D0000ED1082D00D86574AA461A7A22EA06025E
:1065E0001A720BE00CBF4FF001084FF00008EDE706
:1065F000E2194FF00108137A3343137241462046E3
:106600007600FFF7ECFE16F0FF0604BF0137FFB27D
:1066100005F1010508BF0126072FEDB2A0D9ABE7B0
:1066200010B5094A0144002388420AD010F8014BF2
:10663000634003F00F0402EB1313145D1B7C6340F3
:10664000F2E7184610BD00BF1B23030000220921FA
:10665000C260C27102720270C17042700121C261D7
:10666000FF22017141718171028370470023C37160
:10667000037203700923C3700123C1600371437166
:106680008371704710B50B460446FFF7DFFF2046C5
:106690001946FFF7EBFF10BD43781BB1002180784E
:1066A00006F028B9704743781BB10121807806F0C5
:1066B00021B970470B78282B0AD005D8102B07D0AA
:1066C000222B05D0002070473B2B01D0422BF8E74E
:1066D0000120704710B50C4620460721FFF7A0FFA8
:1066E000E3791B1A5842584110BDF8B5C37993425B
:1066F00004460F46164610D9C068FFF703FF002571
:1067000001223946E068FFF712FF30B1EBB29E423A
:1067100005D00135EBB29E42F2D2002005E03946A9
:106720002046FFF7D7FF0028F3D0F8BDC0797047A7
:1067300038B504460D46C068FFF718FE95B9E06805
:10674000FFF7DCFE0022B421E068FFF795FEE06869
:10675000FFF772FE0546E068FFF708FEB5FA85F020
:10676000400938BD2946E068FFF7B6FEEAE70A446B
:10677000914205D011F8013B002BF9D00020704761
:106780000120704770B50446C0680E461546FFF7F5
:10679000EDFDB8B13146E068FFF79EFE0022BE2154
:1067A000E068FFF769FE6E1E0835E068FFF784FEBB
:1067B00006F8010FAE42F8D1E068FFF7D7FD431E9F
:1067C0005842584170BD38B505461446FFF7DAFF08
:1067D00068B1092221462846FFF7C9FF40B90821C0
:1067E0002046FFF71DFF237A1B1A5842584138BD37
:1067F0000020FCE738B50446C0680D46FFF7B6FD3B
:1068000098B1E06895B9FFF779FE2278E0684821F1
:10681000FFF732FE23786BB9142006F063F9E068C5
:10682000FFF7A4FD431E5842584138BD2946FFF7E3
:1068300053FEEAE72046FFF72FFF142006F052F937
:106840002046FFF730FFEAE770B504460D46C06802
:106850001646FFF78BFD2946E068FFF73DFE002254
:106860004E21E068FFF708FE0022B178E068FFF7EC
:1068700003FE0022F178E068FFF7FEFD2B78102B75
:1068800004D000223179E068FFF7F6FDA3792BB13F
:1068900029462046BDE87040FFF7ACBFE068BDE880
:1068A0007040FFF763BD1FB50B78102B0C4616D058
:1068B00001AAFFF788FF60B122789DF808303B2AD3
:1068C00001D11A060BD43F2B0BD004D81F2B0AD0B2
:1068D000002004B010BD5F2B07D07F2BF8D10C2017
:1068E000F7E70A20F5E70920F3E70B20F1E7F7B512
:1068F000044603250026E068FFF704FEE6712672D1
:10690000322006F0EFF8012701226946E068FFF720
:106910000EFE10B369462046FFF7DCFE0028F3D0D8
:10692000E3790133E37169462046FFF7C3FE00288F
:10693000EAD0237A0133237223782BB969462046A3
:10694000FFF7F6FE00B1277069462046FFF7ABFF60
:10695000E3788342D8D2E070D6E7E3791BB9013DF2
:1069600015F0FF05C7D103B0F0BDFFFF10F5DC5FE8
:10697000C6BF00EE100ABAEEEC0A9FED010A70479E
:106980000000FEC20938C0B202289ABF024B33F899
:10699000100040F2EE2070473C23030008B5C068A9
:1069A000FFF74AFD431E5842584108BD70B5437970
:1069B000044615467BB103786BB940F2ED262046BC
:1069C000FFF7ECFFB0B906F0D1F8401BB04211D888
:1069D00006F087F8F3E70846FFF7D4FF05462046A0
:1069E000FFF75AFE284606F07DF82046BDE87040C5
:1069F000FFF759BE70BD38B500230C460360012374
:106A000003700546C868FFF7B1FCE068FFF776FD44
:106A10002278E0684421FFF72FFD06F0A7F82379DC
:106A2000686002461BB1E1782046FFF7BFFF2846A9
:106A300038BDFFFF30B5557809781D4C137815F037
:106A4000800F08BF00243B2918D192F904000028C8
:106A500014DAD8070BD59378D90724D49A0724D40D
:106A600013F0040F134B144818BF184630BDD8005C
:106A700000F4FC6040EAC5202043F7E7D80040EA74
:106A8000C520102940EA0400F0D1D1790029EDD0C9
:106A900093790A4A02EAC000CB1A2038DB0193FB43
:106AA000F1F31844E8E70648E0E70648DEE700BFF0
:106AB0000000F8FF0082FFFF80E4FFFF80FF070077
:106AC0000081FFFF8081FFFFF0B5054685B00E46CF
:106AD00017460024E3B29F420ED301AA314628464E
:106AE000FFF771FE01340028F4D001AA3146284690
:106AF000FFF7A0FF05B0F0BD0048FBE780E4FFFF13
:106B000008B5FFF7E1FFBDE80840FFF72FBF1FB54D
:106B100001AAFFF758FE30B19DF806309DF8070036
:106B200000EB032000B205B05DF804FB7FB514460E
:106B300005460E46FFF7EBFFA0420FD001AA3146F3
:106B40002846FFF740FE48B1231201AA31462846E5
:106B50008DF806308DF80740FFF776FE04B070BD63
:106B600008B505F0A1FF002008BD27207047704739
:106B700037B5FFF7FCFF01210D2005F0A3FE002132
:106B80000D2005F0B7FE68460722032108F08EF8B5
:106B9000BDF800301C4CC3F384130125684607225E
:106BA0000521E55408F082F8BDF80030C3F38413E2
:106BB000684607220621E55408F078F8BDF8003051
:106BC000C3F38413684607220921E55408F06EF8E0
:106BD000BDF80030C3F38413684607220A21E55448
:106BE00008F064F8BDF80030C3F3841307220B21CA
:106BF0006846E55408F05AF8BDF80030C3F3841332
:106C0000E55403B030BD00BF8606002030B5836A6E
:106C100085B004468C4601ADABB193E8070085E82A
:106C200007006268117883F804C0E26A9A6019600C
:106C30001846626A9047A36A1BB195E8070083E88B
:106C4000070005B030BD2B46EBE700BF10B4EFF3F3
:106C50000383103B5BB203F1C001204A204C52F881
:106C600021006FF3104042F8210054F82330D3E99B
:106C700006218A421BD0186940B393F820400F2C9C
:106C80000BD99968496840F82210D96901328A42C3
:106C90009A610CD05DF8044B7047072C19D899689D
:106CA00009798154D96901328A429A61F2D15B68CB
:106CB0000C4993F903305DF8044B5809012203F0A5
:106CC0001F0302FA03F341F82030704798684068C8
:106CD000DCE79C68A48820F81240D7E700600040F9
:106CE000F405002000E100E0F0B5EFF30383103B72
:106CF0005BB203F1C0022F492F4C51F822006FF311
:106D0000104041F8220054F823305868026A002AE3
:106D100030D092F801C0DC695A69BCF1010F17D07C
:106D200094420FD0D96841B393F820000F280AD8B5
:106D30000728986895BF895C31F81210017181802D
:106D400001325A61F0BD986851F822104160F7E7AE
:106D500004F1FF3E724513D001690029E0D090F99B
:106D6000031016484D0901F01F010CFA01F140F81B
:106D70002510D5E75A69DC69D2E798684160DFE7FA
:106D800090F903E00EF1C0064FEA5E10800051F862
:106D9000267000F1604000F561400EF01F0E0CFA05
:106DA0000EF56FF3104741F82670C0F8805105606A
:106DB000B6E700BF00600040F405002000E100E0FD
:106DC00010B4EFF30383103B5BB2324A324C03F151
:106DD000C00152F821006FF3104042F8210054F82E
:106DE00023008268D278920706D54268527A012A37
:106DF00002D05DF8044B70475909284C012220311C
:106E000003F01F0302FA03F344F82130BFF34F8F5E
:106E1000BFF36F8F436893F90230002B2FDB5909C2
:106E2000203103F01F0302FA03F344F82130BFF3CB
:106E30004F8FBFF36F8FD0E90114237891F90210BF
:106E40006FF386130029237014DB01F1C00C114C81
:106E50004B099B0001F01F018A4003F1604354F885
:106E60002C1003F561436FF3104144F82C10C3F864
:106E700080211A605DF8044B0121FFF7C7BE8268CC
:106E80005DF8044B13786FF3861313700121FFF73D
:106E9000BDBE00BF00600040F405002000E100E03E
:106EA00070B5EFF30384103C314B64B253F82460A7
:106EB000736893F90230002B42DB5A092D492032C6
:106EC000012003F01F0300FA03F341F82230BFF35F
:106ED0004F8FBFF36F8FD6E9012392F902101A7812
:106EE00000296FF386121A7015DB01F1C00C224DD8
:106EF0004A09920001F01F0100FA01F102F160421B
:106F000055F82C0002F561426FF3104045F82C0053
:106F1000C2F880111160DA780021D5B21207D97059
:106F200021D4EB0712D405F01405142D16D0124B02
:106F3000C03453F824206FF3104243F8242070BD6E
:106F4000B3681A786FF386121A70E4E704213046AA
:106F500005F01405FFF75AFE142DE8D1082130463C
:106F6000FFF754FEE3E705213046FFF74FFED8E771
:106F7000F405002000E100E000600040036A70B505
:106F80000446987800F07B0098700D46217841B354
:106F90002261E269E5601069002841D0226982B16E
:106FA000A378816800688E68E16803F00303013B01
:106FB00022FA03F3002222619BB2B04780B9236A10
:106FC00021789A7842F080029A7039BB94F802C016
:106FD0000CF0030CBCF1020F1AD02A78DA700020F2
:106FE00070BD94F802C0E0690CF0030E0069A2EBDA
:106FF0000E02226105EB0E02E2600028CED19A78E3
:107000000CF0030C42F08002BCF1020F9A70E4D144
:107010002A8842F47E420020DA8170BD002070BDD3
:107020009A7842F080029A7070BD00BF036A91F8AE
:1070300001C09A7800B502F07B0E02F00B029A7044
:107040000022C2608878587010461A786CF30102EA
:107050001A70CA789A7493F807C00A780CF0A301E2
:1070600002F05C020A43DA7183F802E05DF804FB87
:1070700010B5D0E90721002343608B7092F90520F9
:107080002F49044650090123203002F01F0203FA61
:1070900002F241F82020BFF34F8FBFF36F8FE269F8
:1070A00092F90B205009203002F01F0203FA02F27D
:1070B00041F82020BFF34F8FBFF36F8FE26992F941
:1070C00007205009203002F01F0203FA02F241F8B3
:1070D0002020BFF34F8FBFF36F8FE26992F9092031
:1070E000500902F01F02934000F1200241F82230C3
:1070F000BFF34F8FBFF36F8FE369DA6822B19368F4
:1071000010681B6A9847E3691B691BB19A68186885
:10711000136A9847EFF31081012383F31088E36922
:10712000084A1C78D2F800014FF00043E3400343C3
:10713000C2F80031D2F8003181F31088002010BD70
:1071400000E100E0006F0440F0B5846A85B00546B8
:107150000F4694466E46B4B194E80F0086E80F00DF
:10716000EB691B7884F804C02360EB6A2046C4E90D
:1071700002736B6A9847AC6A1CB196E80F0084E80A
:107180000F0005B0F0BD3446EAE700BF8C465168F9
:1071900030B4029C0D6880B91C609CF8010038B9BD
:1071A000E8784FF0010C0B346CF30510E8701C60AC
:1071B000936810681B6830BC184704F10C00186015
:1071C000EBE700BF2DE9F0470D4609780323CB40DC
:1071D00013F0010301F1007218BF1023037002F5D0
:1071E000605283785201012161F301030262A969AF
:1071F0006A6942620022C0E90A21C56183706B7826
:1072000082B0044623B98378022262F301038370BB
:1072100095F90B00594B95F80AC04209203200F04D
:107220001F06012101FA06F643F82260BFF34F8FD3
:10723000BFF36F8F524A534E00F1C0074FEA0C1C48
:1072400052F827E06FF3104E42F827E01F185FFA5C
:107250008CFC87F800C346F8204095F9050095F8A6
:1072600004C04709203700F01F0E01FA0EFE43F854
:1072700027E0BFF34F8FBFF36F8F00F1C00703EB21
:10728000000852F827E04FEA0C1C5FFA8CFC6FF301
:10729000104E42F827E088F800C346F8204095F9E0
:1072A000070095F806C04709203700F01F0E01FAC5
:1072B0000EFE43F827E0BFF34F8FBFF36F8F00F14F
:1072C000C00703EB000852F827E04FEA0C1C5FFAF6
:1072D0008CFC6FF3104E42F827E088F800C346F8A4
:1072E000204095F9090095F808C04709203700F0BB
:1072F0001F0E01FA0EF143F82710BFF34F8FBFF3B3
:107300006F8F00F1C0074FEA0C1152F827C00344F9
:107310006FF3104C42F827C0C9B283F80013EA6833
:1073200046F8204072B153681B684FF4002143F8BF
:10733000041B216A05310091E1692078FFF726FFDF
:107340000646B0B92A69FAB153681B684FF000616C
:1073500043F8081B216A03310091E1692078FFF7A7
:1073600015FF064680B1EB681BB19A681868136A6E
:107370009847304602B0BDE8F08700BF00E100E06A
:1073800000600040F4050020EFF31080012383F338
:107390001088984B2E78D3F800214FF00041F1402F
:1073A00022EA0102C3F80021D3F8003180F31088EB
:1073B000236AE06900229A701A715A729A72DA721C
:1073C0005A83297840F20722CA40D20744BF40229C
:1073D000DA7406221A7722787AB1C168013A002954
:1073E00000F0FE800126120391B2314341F0060203
:1073F0009A829A8A92B29142FBD1EA78A978D20015
:1074000042EA01126978032900F0D780002914BFED
:10741000F221E221ED69D2B21A7099712A7B5200F1
:1074200002F002025A736A78A97800261E7295F853
:1074300000C0D201490101F02001D2B20A43ACF1EF
:107440000201012940F2BD80D2B2DA716A689178F6
:1074500059701978567866F301011970D1789974CA
:107460001278D97902F05C0201F0A3010A43DA71C3
:107470000027C4E90377C4E9057790F905105E4E4B
:1074800001F1C00E4A0956F82E80920067F31048A9
:1074900002F1604246F82E8002F561424FF0010E83
:1074A00001F01F010EFA01F1C2F88011116090F98C
:1074B0000B1001F1C0094A0956F829A0920002F107
:1074C000604202F5614267F3104A01F01F0146F87D
:1074D00029A00EFA01F1C2F88011116090F907108D
:1074E00001F1C0094A0956F829A0920002F1604250
:1074F00002F5614201F01F0167F3104A46F829A026
:107500000EFA01F1C2F88011116090F9091001F131
:10751000C0004A0956F82090920002F1604267F3D9
:10752000104946F8209002F561420CF0030C01F07E
:107530001F010EFA01F14CF0700CC2F880111160BD
:1075400083F802C06B8923814FF6FF7843452DD025
:10755000EFF310818EF31088284A13681BB928486E
:10756000C3704023C37013680133136081F3108824
:10757000218924480B0A1B0153FA81F150F821306C
:1075800023F0011323F4404343F0040340F8213077
:10759000EFF31081012383F31088136813B113688C
:1075A000013B13601368B3B181F31088164B63601D
:1075B0000026304602B0BDE8F08742F04002F221DA
:1075C00028E7BCF1020F08BF42F01002FF21D2B23F
:1075D0005970DA714CE70A4A8020D370D070E3E723
:1075E000C169097A1140090201F4706141F0010694
:1075F000F9E600BF006F044000600040F005002085
:10760000000D044000080440554943532DE9F04F54
:107610001E46FF23B37033786FF382038BB0337051
:107620008023F370554B0992554A1B6A12680191E9
:10763000C3F302618A40C3F30233DA40514B07902F
:107640000021100A06920891059002910093A2FB76
:1076500003BA099B009A93426EDA9DF82030039397
:107660000027494B039ADD5DC5F34003C5F3800550
:1076700004932B43934256D1444B33F81780079B16
:1076800003FB08F8069BB3FBF8F2541EFF2C4AD804
:1076900002FB08F91DE0059BB9FBF3F37F2B03FB0D
:1076A00000F040D90028B8BFFF300012A0F5C33069
:1076B000A0380028009AB8BF4042824240DC029BBA
:1076C000F370337843F00403A9EB0809337054B323
:1076D000013C4A464FEAE9735846514620F0D4FE31
:1076E000019A002AD7D1A0F5C333A03B002B009A02
:1076F000B8BF5B429A4216DD0093234BB470DA5D4B
:107700003378C2F3000161F38613049961F3041323
:1077100065F3C30333707378C2F3C10262F30103EC
:107720007370019B029301370D2F9AD1089BF3B11F
:10773000009B099A93421DDC00200BB0BDE8F08F3E
:107740000293114B049AD95D33780090C1F3000085
:1077500060F3861362F3041365F3C3033370737825
:10776000B470C1F3C10161F301037370A7E7012392
:1077700008936EE703200BB0BDE8F08F00E00140F6
:1077800080060020A08601007825030088250300DC
:10779000F0B5EFF30383103B5BB203F1C001344A51
:1077A000344C52F821006FF3104042F8210054F895
:1077B0002300C3691B6913B1036913B1F0BD0369E9
:1077C00083B9D0E90824937803F07F03002143F0C4
:1077D00004039370C160002CF0D0BDE8F04080221B
:1077E000FFF7B2BC05785DB3066AF18AC1F30421E4
:1077F000A9421ED28478C2681F4F04F0030E74465B
:107800000BE092F800C086F80FC001311B1B224428
:10781000A942C0E903230CD25BB1BEF1020FF0D143
:10782000B2F800C04CEA070C1FFA8CFCA6F80EC098
:10783000EBE732796FF3C7123271002BBED1C0E78C
:10784000827802F003010229C1680BD0046A0D7826
:10785000E57002F003029B1A0A44C0E90323002BDF
:10786000ACD1AEE70C88056A44F47E44EC81F0E7C5
:1078700000600040F405002000FEFFFF10B582B05C
:10788000EFF30383103B5BB203F1C001574A584C3E
:1078900052F821006FF3104042F8210054F82340C1
:1078A000E369DB6813B1A369002B49D122894FF644
:1078B000FF739A4275D12278236AF2B1D98AC80639
:1078C00012D01B8AC3F308030193A369FBB9636A4F
:1078D0002BB1042201992046FFF736FC22782AB109
:1078E000236AD98AC906E8D1BE221A7123894FF6C4
:1078F000FF72934231D102B010BDA17801F00301B3
:107900000229DED05B790193A369002BDFD0A27836
:10791000606902F0030201A921F059FDD4E90521B3
:10792000A37803F003031A44C91AC4E9052129B94D
:10793000636A1BB101222046FFF706FC2278CEE7DE
:10794000636A0021C4E90511002BD4D0012220462E
:1079500002B0BDE81040FFF7F7BB1A0A1201254933
:1079600052FA83F351F8232022F0011222F440420C
:1079700042F0040241F82320EFF31082012383F345
:1079800010881D4B196811B11968013919601B68FD
:107990001BB91A498020CB70C87082F3108802B0DE
:1079A00010BDEFF31081012383F31088124B1A6886
:1079B0001AB91248C2704022C2701A6801321A60A5
:1079C00081F3108822890B49130A1B0153FA82F2B2
:1079D00051F8223023F0011323F4404343F0050310
:1079E00041F82230236A227867E700BF0060004038
:1079F000F405002000080440F0050020000D0440BC
:107A000010B5EFF30384103C0B4B64B253F8240021
:107A1000D0E90821937803F07B03937019B1022217
:107A20000021FFF791FB054BC03453F824206FF37E
:107A3000104243F8242010BDF405002000600040EF
:107A400010B5EFF30384103C194B64B253F82400D3
:107A5000037843B9837803F00303022B03D0036A4E
:107A60005979C9B203E0036A198AC1F3080193F88E
:107A700004C01CF0100F0CF0380206D093F81CC0A4
:107A80001CF0010F08BF42F0400293F804C00CF054
:107A9000C70C83F804C0436A0BB1FFF755FB054BD5
:107AA000C03453F824206FF3104243F8242010BD53
:107AB000F40500200060004030B5436A85B00446FC
:107AC0008C4601ADABB193E8070085E8070062681A
:107AD000117883F804C0A26A9A6019601846226A75
:107AE0009047636A1BB195E8070083E8070005B07B
:107AF00030BD2B46EBE700BF10B4EFF30383103B20
:107B00005BB203F1C001144A144C52F821006FF328
:107B1000104042F8210054F823305A69D9698A424A
:107B200006D2D3E90240A8B1805CE07001325A610C
:107B30008A4202D05DF8044B70471A69002AF9D1D5
:107B40009A685DF8044B937803F07B0343F00403D9
:107B500093707047E070E9E700600040F405002092
:107B600010B4EFF30383103B5BB203F1C001174A7B
:107B7000174C52F821006FF3104042F8210054F8DE
:107B800023305A69D9698A4206D2D3E90240D0B17A
:107B9000805CE07001325A619A698A4207D2986823
:107BA00019694079541C9C618854D3E9062191429B
:107BB00006D19A68937803F03B0343F00403937073
:107BC0005DF8044B7047E070E4E700BF00600040E0
:107BD000F405002010B5EFF30384103C0A4B64B2A7
:107BE000012153F824008268937803F00303937013
:107BF000FFF762FFC034054B53F824206FF31042A7
:107C000043F8242010BD00BFF405002000600040B0
:107C100010B5EFF30384103C0C4B64B24FF0840CAE
:107C200053F8240083689A7802F003029A701A7954
:107C300083F804C00421FFF73FFFC034044B53F81E
:107C400024206FF3104243F8242010BDF4050020D7
:107C50000060004003685969A1B190F82D3070B5FB
:107C6000044603F0FF0563B98A68038C96680868C8
:107C7000A1692A46B047E269C4E90852012384F8A1
:107C8000333070BD704700BF70B5866B82B004465C
:107C90000B466D463EB396E8030085E80300E26BB1
:107CA0003371236832605A6912B194F82D10A1B172
:107CB0009B6913B194F82D2052B9636B30469847F5
:107CC000A36B1BB195E8030083E8030002B070BD0D
:107CD0009A68186813699847EFE7936810681B69FA
:107CE00098472368E4E72E46D9E700BFEFF3038304
:107CF000103B5BB2044AC03352F823106FF31041BB
:107D000042F82310704700BF0060004070B5EFF3E9
:107D10000383103B5BB2614AC03352F823106FF308
:107D2000104142F82310EFF30383103B5C4A5BB22F
:107D300052F823402269137BC3F30000DB072CD4E5
:107D400094F82C3094F82A10994216D094F82D10FB
:107D500009B1022B41D02046FFF77CFF236994F83C
:107D60002820DA7094F82B2094F82C30013A013353
:107D700084F82B2084F82C3070BD94F8333003F055
:107D8000FF053BBB236A93BB94F82E3063B35221AB
:107D90000123D17284F8303070BD94F82D308BB14E
:107DA00094F8313073B9636AA1695279CA54D4E93D
:107DB000082394F82E10013A0133C4E9082379B15D
:107DC0002269E4E7002001215423206284F82F1067
:107DD000D37270BD84F8330070BD5223D37270BD6E
:107DE00023695422DA7270BD5423D37270BD94F8A3
:107DF0002D1041B9616AA069013B405C0131C4E9C1
:107E00000831D07070BD94F8311000292ED021684F
:107E100084F831504869002838D08969002935D064
:107E2000E069022832D98E68831E0868B668F4219A
:107E300091709BB2A2692946B0472268E3695269F2
:107E4000916810688E68023B9BB22A462946B0476B
:107E5000E36922690220023BC4E90803012184F896
:107E600033100023FF209372D070CBE7636AA169BF
:107E70005279CA54D4E90832013B0132012BC4E9DA
:107E80000832226904D0FF20D070BBE7012BE8D173
:107E90002023FF209372D070B4E700BF0060004041
:107EA000F405002010B582B0EFF30383103B374A8E
:107EB0005BB252F823000269D37A6FF3C303D37223
:107EC00090F82F30ABBB90F82A1003F0FF0C90F81D
:107ED0002C3099421BD1036A5BB990F82D1090F8B1
:107EE0003040002914BF02210321A4B3D372FFF74D
:107EF000CBFEEFF30383103B5BB2254AC03352F84D
:107F000023106FF3104142F8231002B010BDB3B933
:107F1000012929D090F829C00021D17282F803C02C
:107F200090F82B200133013A80F82B2080F82C3078
:107F3000DFE7F023D3720121FFF7A6FED9E790F81F
:107F40002D4004F0FF016CB1022BE5D190F829C05F
:107F50004CF0010CE0E7F023D372937803F0CF03E9
:107F60009370C4E78C46D7E70190FFF773FE019842
:107F700090F82A30012B05D190F828C0026990F8BA
:107F80002C30C9E7026990F82C30C3E7F4050020D3
:107F900000600040F0B583B0EFF30384103C154B54
:107FA00064B253F82450EF68BFB16A682B6992F944
:107FB0000D20121B18BF01226E46C3B193E80300C7
:107FC00086E803001A706A695A601846B8472B6938
:107FD0001BB196E8030083E80300074BC03453F855
:107FE00024206FF3104243F8242003B0F0BD334641
:107FF000E8E700BFF405002000600040EFF30383D2
:10800000103B5BB20649074A51F823100120C033E8
:10801000087252F823106FF3104142F82310704792
:10802000F4050020006000400B0A1B01044853FACD
:1080300081F150F82130C3F34003002013707047E2
:1080400000080440C8B2012383404AB91A040B0A4D
:108050005B0103F1804303F5802300209A607047A1
:108060009AB2F4E738B50488002C4DD0436800215B
:10807000043303EBC40040F202450C4640F2034CCB
:1080800040F2044E0FE0624530D153F8042C02F068
:10809000B852B2F1807F14BF41F0020144F00204F3
:1080A0000833834211D01A88AA42ECD153F8042C29
:1080B00002F0B852B2F1807F03F1080314BF41F01F
:1080C000010144F001048342EDD1C943CDB2012046
:1080D00001F042FF0D4B93F8BB2414432C4083F86E
:1080E000BB440120BDE8384001F006BF7245D7D13E
:1080F00053F8042C02F0B852B2F1807F0CBF44F068
:10810000040441F00401CBE7FF25E0E700E0014073
:1081100070B584B002AB012668460C461546ADF832
:108120000C100292ADF800600193FFF79BFFEFF394
:10813000108286F310881D490B681BB91C48C37058
:108140004023C3700B6801330B6082F31088EA038D
:108150004FEA1423E4B219D41B01164A234442F80F
:108160002350EFF31082012383F310880B6813B1BF
:108170000B68013B0B600B681BB90D498020CB706D
:10818000C87082F31088002004B070BD04EB0310A7
:10819000084A52F820606FF3104642F8206025F438
:1081A000803642F820601B01D7E700BFF0050020B1
:1081B000000D04400008044070B5C36A84B0044652
:1081C0008C46164601AD9BB193E8070085E8070091
:1081D00083F808C0226B1846C3E90026A26A9047BC
:1081E000E36A1BB195E8070083E8070004B070BD9F
:1081F0002B46EDE78268012370B580F82030022617
:10820000B323D37180F82160537904466FF30003E0
:108210005371C2690D46FFF7CFFFA368DE705A792C
:1082200042F001025A7194F82120012A16D094F8E4
:10823000212002B170BD052DFCD194F82320002A25
:10824000F8D194F821201AB95A7A02F0F3025A723E
:10825000BF210122D97184F8232070BD042DECD0F8
:10826000082DE4D1E9E700BF30B583B0EFF3038315
:10827000103B5BB2454AC03352F823106FF31041F4
:1082800042F82310EFF30383103B5BB2404A52F8ED
:10829000234094F82230B3B9A368012284F8222045
:1082A000DA7CD2B28DF805209DF8052012F0010F7E
:1082B0005A7A14BF02F0F70202F0F3025A72AC22AB
:1082C000DA7103B030BD94F820304BB9A3681B7A43
:1082D00013F0080F204614BF08210421FFF78AFF7E
:1082E0002269A2B9A368D97CC9B28DF806109DF89D
:1082F0000610197941F010011971197941F008013E
:108300001971197962F30411197103B030BDA369B1
:10831000A1689A4209D0E268C97C581CA061D15476
:10832000E3690133E36103B030BD022584F82150D5
:108330004B79E2696FF300034B7120460621FFF78A
:108340003BFFA3682169DD705A7942F001025A713E
:1083500091B9DA7CD2B28DF807209DF807201A79FE
:1083600042F010021A711A7942F008021A711A7951
:1083700061F304121A71A4E7A269E168DB7C501C66
:10838000A0618B54E3690133E3619AE70060004028
:10839000F405002038B5EFF30383103B5BB2244AA9
:1083A000C03352F823106FF3104142F82310EFF35B
:1083B0000383103B5BB21F4A52F8234094F82030ED
:1083C00093B194F8213003F0FF0263B9A3692169E6
:1083D00099420ED0E269E068A168C05C88740133FC
:1083E0000132C4E9063238BD05212046FFF702FFFD
:1083F000E7E723680E4993F90E3003F1C000002B24
:1084000051F8205062F3104541F8205009DB5A0919
:10841000094803F01F030121603201FA03F340F819
:108420002230A268D37943F04003D37138BD00BF36
:1084300000600040F405002000E100E038B5EFF3F3
:108440000383103B204A5BB252F82340A1680B79AA
:108450005807C3F3800217D5CA796FF38612C02379
:10846000CA7101E0013B02D0CA795206FAD4EFF397
:108470000383103B5BB2154AC03352F823106FF3ED
:10848000104142F8231038BD022584F821504B7961
:1084900062F300034B71E26907212046FFF78CFE6F
:1084A000A168CD704B7943F001034B7194F82130F2
:1084B000002BD1D1A369E269E0680132C05C887405
:1084C0000133C4E90632C7E7F4050020006000402C
:1084D00010B582B0EFF30383103B3E4A5BB252F813
:1084E000230083685A7A91074DD1D1B211F00C0F55
:1084F0003CD0012280F8242090F82120012A65D068
:10850000016982699142C26988BF02F1FF324FF06E
:10851000030188BFC2614FF0000EA024DC7180F817
:1085200020E080F822E093F805C06EF3000C83F899
:1085300005C090F82440002C43D1DF241C709F24F8
:108540001C7000240223C46180F82130FFF734FE40
:10855000EFF30383103B5BB21F4AC03352F8231082
:108560006FF3104142F8231002B010BDCA06EFD5D8
:10857000DA7CD2B28DF807209DF80720DA7902F074
:10858000EF02DA71E4E70022A02180F82420D971FB
:1085900080F8202080F82220597962F30001597177
:1085A00090F8241081B9DF219F2219701A700021E0
:1085B0000223C26980F82130C1610121FFF7FCFD6F
:1085C000C6E783F809E0BCE75A72F0E7C269022106
:1085D000A1E700BFF40500200060004030B5836BC8
:1085E00083B004460A466D46A3B193E8030085E8CC
:1085F0000300E16B1A71626B196018469047A36B18
:108600001BB195E8030083E80300002384F82B30B6
:1086100003B030BD2B46ECE7036902682DE9F04F4B
:108620001F241C705F241C70DF241C70546A556862
:108630002279564EDFF8608142F0E0021A74E27847
:1086400042F0E0025A74A278120102F0700242F085
:1086500008029A7022786478012A0CBF052204224D
:1086600042EA4402D2B2DA70494A95420CBFF7227C
:1086700077225A710027B3229F71DA7191F9112084
:1086800091F80DC0B4184FEA0C1C5FFA8CFC84F80A
:1086900000C302F1C00548F822003E4C4FEA521ECA
:1086A00054F825904FEA8E0E67F310490EF1604E94
:1086B00044F825900EF5614E012502F01F0205FADF
:1086C00002F2CEF88021CEF8002091F90F2006EBBF
:1086D000020E02F1C0098EF800C348F822004FEAEA
:1086E000521E4FEA8E0E54F829B00EF1604E0EF570
:1086F000614E02F01F0205FA02F267F3104B44F8D4
:1087000029B0CEF88021CEF8002091F9102006EB98
:10871000020E02F1C0098EF800C348F822004FEAA9
:10872000521E54F829B04FEA8E0E0EF1604E0EF52F
:10873000614E02F01F0267F3104B44F829B005FAAE
:1087400002F2CEF88021CEF8002091F90E100E44EE
:108750004A0986F800C348F8210001F1C00001F081
:108760001F018D4054F82010920002F1604267F31F
:10877000104144F8201002F561424FF09F0AC2F800
:108780008051156083F800A0BDE8F08F00E100E0A3
:1087900040420F0000600040F405002010B483B098
:1087A000EFF30383103B5BB2484AC03352F8231007
:1087B0006FF3104142F82310EFF30383103B444A58
:1087C0005BB252F8233093F82D20BAB99A69022A85
:1087D0001A699EBF117941F040011171D9690129CF
:1087E00017D0D27CD2B28DF8072001219DF8072046
:1087F00083F82D1003B05DF8044B7047DA69002A46
:10880000F8D0032A0ED0022A4ED0012A21D01969AD
:108810000DE0117941F010011171117941F0080159
:108820001171DEE719690A7942F040020A711A6A89
:108830005869C97C8154D3E907210131013AC3E960
:108840000721002AD6D119690B7962F386130B71BF
:10885000D0E793F82A1089B319681E4C91F90F10CC
:108860004809203001F01F0102FA01F144F82010FC
:10887000BFF34F8FBFF36F8F1969C87940F0800045
:10888000C871087940F01000087108794FF0040CA5
:108890006FF3C300087181F801C048796FF30000DD
:1088A000487183F82C20C2E719690A7942F0100256
:1088B0000A710A7942F008020A71B8E719694A7A1E
:1088C000082002F0F7024A724870B0E700600040EA
:1088D000F405002000E100E0EFF30383103B5BB2FE
:1088E000354AC03352F823106FF3104142F8231079
:1088F000EFF30383103B5BB2304A52F8232092F827
:108900002730002B37D192F829309BBBD36910B4A4
:10891000002B42D11069C1796FF3C711C023C17117
:1089200001E0013B02D0C179C909FAD11368224A9A
:1089300093F9103003F1C001002B52F821406FF37E
:10894000104442F8214009DB5A091D4C03F01F0373
:108950000121603201FA03F344F82230C3795DF853
:10896000044B43F04003C3717047022909D192F8C8
:10897000300030B9704792F82610032992F8281079
:10898000F3D0106992F824C080F812C00131013B85
:1089900082F8281082F827307047D2E90404116A5F
:1089A000013B645C84740131C2E90731002BB2D011
:1089B0005DF8044B704700BF00600040F4050020E4
:1089C00000E100E010B4EFF30383103B2B4A5BB2ED
:1089D00052F8233093F829201AB193F82720012A5E
:1089E00047D0DA69D2B11969CA796FF38612C02308
:1089F000CA7101E0013B02D0CA795206FAD4EFF302
:108A00000383103B5BB21E4AC03352F823106FF34E
:108A1000104142F823105DF8044B704793F82A1078
:108A2000F9B11968174C91F90F10480920304FF02F
:108A3000010C01F01F010CFA01F144F82010BFF302
:108A40004F8FBFF36F8F1969C87940F08000C871EC
:108A500004204870487962F30000487183F82CC004
:108A6000C2E719694B7A082203F0F7034B724A7088
:108A7000BAE793F83020002AB3D1B4E7F405002018
:108A80000060004000E100E038B5EFF30383103BE5
:108A90004B4A5BB2E02152F8234023695A7A59725B
:108AA000D506D0B202F003011FD55A78520648D439
:108AB000E269012184F82B10002A5ED0002521688C
:108AC000DD712046FFF7A8FD94F82610A2692369FE
:108AD000E56184F82810226284F82C50B322DA7100
:108AE00001212046FFF77AFD12E00029E0D10107BD
:108AF0001BD594F82B20002A48D194F82910B322D2
:108B0000002914BF02210321DA712046FFF766FD18
:108B1000EFF30383103B5BB22A4AC03352F82310B1
:108B20006FF3104142F8231038BD94F82C20002A2E
:108B3000EED04207ECD594F82B200121002AE4D195
:108B4000DBE70029B4D15A785506C2F38011CED59F
:108B500084F82B105A7A216802F0F702496A5A7297
:108B6000082058700A78012A0CBF03220222DA700A
:108B70005A7942F001025A71CAE794F82C20002A6F
:108B80009CD194F82B20002AA8D097E7E2696AB11B
:108B9000002294F82600A169E26184F8280021628D
:108BA00084F82C20B322DA710121AEE794F82C204E
:108BB000002AEDD194F82B20002AF3D0E8E700BF7B
:108BC000F40500200060004010B582B0EFF303848C
:108BD000103C164B164964B253F8242050790B5CB4
:108BE00003F00303032B0FD0C03451F824306FF38C
:108BF000104341F82430936823B1D268CDE90020B6
:108C00006846984702B010BD936823B1D268CDE999
:108C1000002068469847064BC03453F824206FF371
:108C2000104243F8242002B010BD00BFF40500201C
:108C3000006000400346D3E90223002053607047E0
:108C4000D0E90123D26930B4D2E9011444F00044E0
:108C5000D0685C61D2E9045440F0004041F000412A
:108C60009861196100205D629C6230BC704700BF52
:108C7000002800DA704710B400F16043114C03F58E
:108C800061430901C9B283F8001344F820200E495A
:108C900000F1C00200F01F0C400951F82240800092
:108CA00000F1604000F561406FF31044012341F88A
:108CB000224003FA0CF3C0F880315DF8044B0360E6
:108CC000704700BFF40500200060004070B5836964
:108CD00084B004468C46164601AD9BB193E807006C
:108CE00085E8070083F804C0E2691A609E601846B0
:108CF00062699047A3691BB195E8070083E8070004
:108D000004B070BD2B46EDE790F800C0486EBCF192
:108D1000030F98BF01300AB1824227D310B4019CDF
:108D2000496BE40754BF01F01F01C1F30441BCF1DA
:108D3000030F09D9090981F0010172B9E9B90222C9
:108D40005DF8044B5A60704701F00C01A1F1040179
:108D5000B1FA81F14909002AF0D0824201D30029F9
:108D6000EDD103225DF8044B5A607047BCF1030F4C
:108D700098BF02F1FF321A6070470028DFD0F0E799
:108D80002DE9F0470B7C0D46012101FA03F2C26088
:108D9000920716BF002201740274D5E9052103F57C
:108DA000800303F5F0631B0242610022EE69456017
:108DB000C0E9062184B004468360EFF310800123EC
:108DC00083F31088854B297C0229D3F8081134BF1E
:108DD0006FF020076FF040073940C3F80811D3F84F
:108DE000083180F31088A3686F684FF4254119603B
:108DF000DA62DA639A642A78297A032A4FEAC1513F
:108E000007F1FF3C00F0D58084BF41EA0241BC4637
:108E1000D6E9068ED9624FF00041196100205961F0
:108E200099614FF0FF315862039098620291C3F844
:108E30001C80C3F820E0D6F82C80C3F868C0C3F8C3
:108E400064C0002A40F0A0807908013902914046B0
:108E500001224FF0030C5965996500285DD095F803
:108E600000E0B76A002F71D0B97897F8039009062F
:108E700041EA097197F8049041EA09419963B96898
:108E8000C3F88C10002965D0012148B997F81C90CF
:108E900097F81BA04FEA496949EA4A2948EA0908B4
:108EA000C3F8881040B996F8211096F820004907B9
:108EB00041EA403148EA01084FF4AA01BEF1010F2E
:108EC000196402D10021D9641965E168D960C3F839
:108ED0003480C3F830C01A63697C95F912002246C9
:108EE000FFF7C6FE96F8221096F924002246FFF7F7
:108EF000BFFE96F8231096F925002246FFF7B8FE2C
:108F00002FB1397897F901002246FFF7B1FE344BB3
:108F10002360002004B0BDE8F0873178F9B995F8F6
:108F200000E0B17800299CD0F778BEF1020F4FEA3B
:108F3000071141EA87113FD04BD903273943B76A5C
:108F400048EA014848F08078002F8DD19F63C3F82C
:108F50008870A7E7F968003918BF012195E795F8EF
:108F600000E07178BEF1020F4FEA81194FEA011754
:108F700024D029D9032148EA010848EA090848EA27
:108F8000070848F48078CCE7012A19D000901946E8
:108F9000EA68606802ABFFF7B7FEDDE90210020481
:108FA00042EA006242F0030CA368F06A42F0010258
:108FB00051E741F480312BE70927BFE70921DAE7C0
:108FC00040464FF0030C46E7002914BF0921062153
:108FD000D1E7002F14BF09270627AFE7006F044031
:108FE0005450470030B4436893F91220DB69002ADB
:108FF00011DB51092E4D02F01F0C2031012404FA1F
:109000000CF445F82140BFF34F8FBFF36F8F294910
:10901000002441F8224093F92420002A11DB510951
:10902000234D02F01F0C2031012404FA0CF445F802
:109030002140BFF34F8FBFF36F8F1E49002441F8CB
:10904000224093F92520002A11DB5109184D02F026
:109050001F0C2031012404FA0CF445F82140BFF321
:109060004F8FBFF36F8F1349002441F822409B6A52
:10907000A3B193F90130002B10DB03F01F045A0950
:109080000121A14020320A4C44F82210BFF34F8F37
:10909000BFF36F8F074A002142F823108268C1682E
:1090A0000023036030BC184691605363704700BFD3
:1090B00000E100E0F405002030B4EFF30383103B3F
:1090C0005BB2184A184C03F1C00152F821006FF34B
:1090D000104042F8210054F82300446894F800C07E
:1090E000BCF1010F15D1D0E90254AC600024AC648E
:1090F000EC642C6552F8215064F3104542F821507D
:109100005A090A4903F01F0360320CFA03F341F8CD
:109110002230436923B1002230BC1146FFF7D6BD8F
:1091200030BC704700600040F405002000E100E022
:109130001E4B10B4C3600B7803F001034370EFF3D0
:10914000108C012484F31088194BD3F8082122F4E1
:109150008012C3F80821D3F808318CF31088EFF39C
:10916000108C84F310884278D2B9C468237962F3F2
:10917000861323718CF310884A684B78D278C468C0
:10918000D201DB01D2B2DBB26271A3710123E371C0
:109190000A780270074B43605DF8044B002070476B
:1091A000C26813796FF3C7131371E3E700E005405A
:1091B000006F044000434144C3684278002023F814
:1091C00012107047EFF31083012282F31088427867
:1091D000C1683AB90A7942F040020A7183F31088F3
:1091E000002070470A7942F080020A7183F31088E8
:1091F00000207047EFF31081012383F31088427839
:1092000042B9C068037962F38613037181F3108851
:1092100000207047C26813796FF3C713137181F38D
:1092200010880020704700BFEFF3108C012383F3F8
:109230001088437873B9C268117963F3861111718C
:10924000117A63F3861111728CF310880023436046
:1092500018467047C3681A796FF3C7121A711A7AE1
:109260006FF3C7121A72EFE7F0B5076A8BB00646C4
:1092700067B3BE468C46BEE80F006C460FC4BEE81E
:109280000F000FC49EE8030084E80300BCE80F0051
:109290003D460FC5BCE80F000FC59CE803008EE8F3
:1092A0000300F36938469847336A6BB1EE469C4633
:1092B000BEE80F00ACE80F00BEE80F00ACE80F00FE
:1092C0009EE803008CE803000BB0F0BD0F46E8E712
:1092D00030B58BB0EFF30383103B5BB22E4AC03343
:1092E00052F823106FF3104142F82310EFF3038379
:1092F000103B5BB2294A52F82350002128226846CD
:1093000020F089F86C6894F84D380020DBB284F8BE
:109310004D08ADF80430B4F84218C1F30012C90684
:1093200038D543F02003ADF80430022394F85328D5
:1093300084F8533894F8523803F01F03D2B2E1187E
:1093400084F8532891F8202860F3820281F82028BD
:109350002A681268009269466A6A03932846049252
:10936000FFF782FFB4F84238DB0611D52B681A6983
:10937000127D6AB193F91530002B09DB5A090848B0
:1093800003F01F030121403201FA03F340F82230B9
:109390000BB030BD1346DBE700600040F405002051
:1093A00000E100E02DE9F0418AB0EFF30383103BC8
:1093B0005BB23F4AC03352F823106FF3104142F8BA
:1093C0002310EFF30384103C3A4B66B2002253F8AB
:1093D0002600D0E900E595F8533885F8532895F82C
:1093E000527807F01F07DBB207F1200285F85338E7
:1093F000130104F0FF0455F803C0CCF380718DF81D
:109400001910E958DEF810301B7B43EAD17303F0E2
:1094100001038DF81830002B46D1CCF38A4305EBBD
:10942000021205939188C1F3030301F00F0108298B
:109430008DF81A3035D908218DF81A1008AA0023A2
:1094400005EB071808EB030C01339CF806C202F881
:1094500001CB8B42F6D3DEF8003003972F44009304
:10946000442387F82038002307934FF48063ADF836
:1094700004306946436A0493FFF7F6FEB5F84238B4
:10948000DB070BD5002E09DB76090B4A04F01F041D
:109490000123403603FA04F442F826400AB0BDE83E
:1094A000F0810029CAD1D6E72CF06043B7E700BFAE
:1094B00000600040F405002000E100E070B58AB0D3
:1094C000EFF30383103B5BB2214AC03352F8231001
:1094D0006FF3104142F82310EFF30383103B1D4A52
:1094E0005BB2012652F823506C6894F8532884F834
:1094F000536894F85238D2B203F01F0384F853280B
:109500000393E2184FF40063ADF804302B681B6836
:1095100000936B6A0493002382F82038694682F82E
:1095200020382846FFF7A0FEB4F842389B070CD538
:109530002B6893F91730002B07DB5A09064903F013
:109540001F0340329E4041F822600AB070BD00BF48
:1095500000600040F405002000E100E08268117A1C
:1095600001F00101137AC3F340039942FAD1436831
:109570001978012908D1C16893F810C004484B1E1E
:109580009BB240F82C101380F12313720020704717
:10959000A8050020D0E90223013BF1219BB21380F2
:1095A00000201172704700BF8268117A01F001013A
:1095B000137AC3F340039942FAD143684FF0F40C95
:1095C000002182F808C0117393F9123013F1210FB2
:1095D00003D100230360184670478B421ADB5A09F7
:1095E00010B401210F4C203203F01F0301FA03F3E2
:1095F00044F82230BFF34F8FBFF36F8F43680A4A9E
:1096000093F912305DF8044B42F823000023036005
:1096100018467047044A42F82300002303601846A6
:10962000704700BF00E100E0F4050020F0B40B7CBF
:1096300003F1401303F500631B02C0E90113EFF3CC
:109640001085012383F310880C7C394AC4F103048C
:10965000A340D2F8084124EA0303C2F80831D2F843
:10966000083185F31088826800231372137AC3F3DC
:10967000400C9B07FAD4CC6982F80AC0E3782678BC
:109680000D7A247903F00703002E42D1002D47D133
:1096900014734C684768002696735372631E957264
:1096A0009BB2C4603D7C1380224B43F8254091F966
:1096B0001230B34222DB4A7C03F1604404F561447A
:1096C0001201D2B284F800231B4A1C4C42F823003A
:1096D00003F1C0055A0954F82570920002F1604266
:1096E00066F3104744F8257002F5614203F01F034A
:1096F000012404FA03F3C2F880311360D1E9054173
:1097000000230F4A0461C0E905310260F0BC18462D
:109710007047502E06BF43F0500365463343B7E70A
:1097200085F0020543EA0513DBB23546B0E700BF1A
:10973000006F0440A8050020F405002000600040F0
:1097400054474100F0B585B0EFF30383103B5BB2A3
:1097500003F1C0011B4A1C4C52F821006FF310406A
:1097600042F8210054F82340D4E901120978137A11
:109770000129DBB204D1F42103F0F003117213725A
:109780002769B7B1656901AECDB195E8070086E8F4
:1097900007009B0644BF00232B71A3692B6028465A
:1097A000B84763691BB196E8070083E80700A26821
:1097B000137ADBB203F00F03137205B0F0BD354628
:1097C000E7E700BF00600040F405002003460020EA
:1097D0001A689B8A1380704703681B88C3F3C033E1
:1097E00000200B70704700BF03681031002033F871
:1097F00011301380704700BF43682DE9F041D1E973
:1098000001250C685E6903681FFA84F8A3F80480D8
:109810001FFA82F8A3F8148022F0405C1FFA85F842
:1098200024F0405E25F040572243A3F808804FEA19
:109830001C4C3F0C4FEA1E4812F0405FA3F8068014
:10984000A3F816C05F8159D1CA68002A00F0988039
:1098500015892F0522D5D2E900C7B2F80A80A3F8EE
:109860009050A3F89C80B2F80C80A3F89E801FFA59
:109870008CF8A3F89480CCF30B484FEA1C7CA3F837
:10988000968083F892C01FFA87FCA3F898C0C7F3AC
:109890000B4C3F0FA3F89AC083F89370AF051FD409
:1098A0000A8AA3F89050A3F88020F27892B11A881F
:1098B000BEFA8EF11FFA82FE2EF01F0E0EF11F0E61
:1098C000828AAEEB010E1FFA8EFE4EEA0202A3F868
:1098D00000E082822B4BC0E903340020BDE8F08118
:1098E000977C92F813C047EA0C0783F8A670D789D3
:1098F000128AA3F8A870A3F8AA20D1E7224FD7F8BC
:109900002080224F3F68C8F3026C07FA0CFCC8F3B2
:1099100002181F4F2CFA08FCA7FB0C7C4FEA9C1C7A
:109920001C4F41F2883808FB0CFCA7FB0C7C4FEA6B
:109930009C4C0CF1010CBCF1070F38BF4FF0070C29
:1099400012F080570AD05FFA8CF715F0805F83F829
:10995000DE7040F2011708BF4FF48077920009D5FE
:109960005FFA8CFC47F40077AA0083F8DFC048BF99
:1099700047F00207CA68BFB25F82002A7FF468AF6F
:1099800015468DE74344415200E001408006002027
:10999000D34D621083DE1B432DE9F8430B880C4640
:1099A0005B0222696669C968026203F1804303F5BC
:1099B000B8230022036081614460C2613179627919
:1099C0000546A0788F074FEA0223F17843EA403337
:1099D00054BF43F0400343F48863002900F0DF8064
:1099E00043F42073022A08BF764A9BB208BF32F8BC
:1099F00021C0AB8218BF4FF0000C2279E17870785B
:109A000096F800E0D20342EA410242EA4010EFF346
:109A10001088012181F310886B4F2288D7F80891B4
:109A2000C2F1100201FA02F229EA0202C7F8082183
:109A3000D7F8082188F3108847F6FF572A6880B2C4
:109A40003B401380A2F810C0D08182F80CE033793B
:109A5000980700F1AD8082F88A3094F90630002B27
:109A600022DB227A03F1604101F561411201D2B299
:109A700081F80023554A564942F8235003F1C000AB
:109A80005A0951F82070920002F160426FF31047BA
:109A900041F8207002F5614203F01F03012101FA31
:109AA00003F3C2F88031136094F90730002B22DBF6
:109AB000627A03F1604101F561411201D2B281F88D
:109AC0000023424A424942F8235003F1C0005A0998
:109AD00051F82040920002F160426FF3104441F8C7
