:10400000007F002021A60000C9A400001DA600001A
:104010001DA600001DA600001DA600001DA6000094
:104020000000000000000000000000001DA60000CD
:104030001DA60000000000001DA600001DA6000037
:104040000000000000000000000000000000000070
:104050000000000000000000000000000000000060
:104060000000000000000000000000000000000050
:104070000000000000000000000000000000000040
:104080000000000000000000000000000000000030
:104090000000000000000000000000000000000020
:1040A0000000000000000000000000000000000010
:1040B0000000000000000000000000000000000000
:1040C00010B5054C237833B9044B13B10448AFF352
:1040D00000800123237010BD580300200000000061
:1040E0000873030008B5034B1BB103490348AFF342
:1040F000008008BD000000005C030020087303007E
:1041000010B50D4C0D49204608F0AEF90C4920467B
:1041100008F0AAF90B49204608F0A6F90A492046FA
:1041200008F0A2F90949204608F09EF920460849FE
:10413000BDE8104008F098B92006002004160300DE
:104140001F1603002E16030040160300631603001B
:104150007C2E030073B50D4D0D4C0E4E28460221EA
:1041600002F0F0FC29460C4D204602F04FF9324691
:104170002146284602F086FB002300932A46334658
:104180002146064800F066F802B070BD84040020A5
:104190009804002000000020640400207403002024
:1041A00008B54FF416510C4807F050FB0A4807F0C9
:1041B0004BFB0028FAD00949074808F055F908498F
:1041C000054808F051F9074801F016FF0649024872
:1041D000BDE8084008F048B920060020CF160300CB
:1041E000EB16030074030020F51603001FB51448F6
:1041F00007F073FB002811DD11490A2201A808F01D
:10420000A3F901A808F04CFB0E4901A808F0D4FA64
:1042100050B1FFF775FF01A808F0B9F90A4801F09D
:104220007BFE05B05DF804FB084901A808F0C4FA5C
:104230000028EED10649024808F016F9EBE700BF66
:10424000200600209516030074030020424D030051
:104250009A16030010B58360029BC360C0E9001288
:1042600000234FF0FF32C0E92623C0F8E0200022EF
:10427000037443748374C0F89430C0E93033C0E9E8
:10428000323380F8D030C0E9353380F8DC30C0F804
:10429000E420C0F8E82080F8EC3080F8ED3010BD64
:1042A00010B50446806803689B689847A068044975
:1042B00003685B6B98470348BDE8104002F014BBED
:1042C0003418030056180300406803681B68184739
:1042D00030B504468068036887B01B6C984720B3EC
:1042E000A1680B680A225B6C68469847684608F02C
:1042F000D7FA684608F0C8FA2D49684608F05CFA13
:10430000A8B1A0682B4903685B6B98470125A0689A
:10431000A5740368DB6C984784F8D05009F030F836
:10432000C4F8CC00684608F032F907B030BD224925
:10433000684608F041FA0028E3D12049684608F0B1
:104340003BFAD0B91E49684608F036FAA8B9029B74
:10435000002BE7D0A0681B490368DB689847A46876
:104360002368694603A89D6908F09CF9204603A9C3
:10437000A84703A808F00BF9D4E7A068124903681E
:104380001B699847A068114903681B699847A06892
:104390000F4903681B699847A0680E4903681B69A9
:1043A0009847A068084903681B699847BAE700BFA7
:1043B000C21B0300141703002C16030095160300FC
:1043C000424D0300E81B0300A71F03008B1B0300E3
:1043D000A71B0300C71B03002DE9F04F87B004465D
:1043E00080683C49036800AF1B69C7F808D098474C
:1043F000206803685B689847054648B9A068364955
:1044000003681B699847A5741C37BD46BDE8F08F4B
:10441000431EFB6099466B46A3EBC0039D46E846EE
:104420000026AE4208DA20680368F2B208EBC60143
:104430009B6898470136F4E74FF0000AFB689A45FD
:1044400028DA464600234B451FDAB34608360133C7
:10445000082231465846C7E9003325F0C1FB002841
:104460007B68F0DD0822594607F1100025F0C7FBF4
:1044700008223146584625F0C2FB082207F11001F8
:10448000304625F0BCFB7B68DDE70AF1010A09F143
:10449000FF39D3E70026AE420BDA2068036808EB49
:1044A000C6010136DB6932469847142008F024FF24
:1044B000F1E7A068094903681B69984760680368C9
:1044C0001B6898470023A374C4F8C830D7F808D0F5
:1044D0009AE700BFCF1E0300F51E0300071F03006D
:1044E00073B5044680681B4903681B6998472068B8
:1044F00003685B68984700250646B54211DA2068D4
:104500000368EAB29B686946984740B1206803682F
:104510000022DB69694698470A2008F0EDFE013564
:10452000EBE7A0680C4903681B699847A0680B4932
:1045300003681B699847A068094903681B69984785
:10454000606803685B6898470023A374C4F8C830A8
:1045500002B070BDCA190300EB190300101A030062
:10456000541A03002DE9F0470025C0F89450044682
:104570000068036886B05B680E4698470746BD42F0
:1045800020DA20680368EAB29B6803A9984720688C
:10459000036803A99B699847431E072B10D8D4F8DA
:1045A000943004EB0312C2E90700104603A9082265
:1045B000143025F024FBD4F894300133C4F894303F
:1045C0000135DCE7002520222C213046C4F8C050FC
:1045D000CDE900558DF8085008F04BF9304608F049
:1045E0005FF92021304608F041F9A8425DDB4249DD
:1045F000DFF8048103A808F015F84FF00109B3684B
:104600009D4233D80FD22946304608F01CF9824625
:10461000504625F0FDF8074640B1514603A808F082
:10462000A7F80135EBE74FF0200AF1E7BAF1200FC8
:10463000F7D1059B002BF4D003A808F05AF9431ECC
:10464000072B0CD8D4F89430BB4208DD04EB0712DA
:10465000D269824208D106AB184400F8189C414642
:1046600003A808F029F8DCE70137EDE703A807F015
:104670008EFF01231DF803208AB1D4F89410002284
:1046800091420CDD04EB0210C069984231D1D4F89C
:10469000C010481C2831C4F8C00044F82120013360
:1046A000092BE7D106B0BDE8F0874FF00108B368E9
:1046B0009D42DED22946304608F0C5F8074625F06F
:1046C000A7F890B1A7F13002313F072F0DD8D4F8E9
:1046D00094100023994208DD04EB0310C069904256
:1046E00005D106AB1A4402F8188C0135DFE7013317
:1046F000F0E70132C4E700BF762D03002DE9F14F4A
:10470000044680680368DB6A9847A06833490368F9
:104710001B699847206803685B6898470746A0684C
:1047200003681B6927B92E4901B0BDE8F04F18474F
:104730002C49DFF8C8A0DFF8C8909847A0682A493C
:1047400003681B6998470025BD4242DA2068036868
:10475000E9B21B6A9847061E05F10105F4DD6068A1
:10476000036831465B699847804660680268314655
:10477000926990478346A06802685146D268904784
:10478000A06802682946D2699047A0680268494635
:10479000D2689047A06802683146D2699047A06805
:1047A00012490268D2689047A06802684146D269FF
:1047B0009047A0680E490368DB689847A0680368C3
:1047C0005946DB699847A0680A4903681B699847FE
:1047D000BAE7A068084903681B69A5E7211F030021
:1047E000F51E0300441F0300671F0300901F030012
:1047F000971F0300A11F0300A51F0300B261030060
:104800008A1F030070B50446806803688AB0DB6ABB
:104810009847A068364903681B6998472068036871
:104820005B6898470546A06803681DB91B69314954
:1048300098474EE0DB6830499847A06803682946EE
:10484000DB699847A0682D4903681B69984708F001
:1048500097FD42F20F76054608F092FD401BB042EC
:10486000A068036841D89B6C014601A89847039B48
:10487000002B36D0224904A807F0D4FE04A901A8D1
:1048800007F0AEFF054658B91E4907A807F0CAFE53
:1048900007A901A807F0A4FF054607A807F077FEBF
:1048A00004A807F074FEB5B160680368DB69984737
:1048B000A068154903681B699847A06813490368F5
:1048C0001B699847606803681B68984701A807F050
:1048D0005EFE0AB070BDA0680D4903681B69984769
:1048E000F4E701A807F053FEB6E71B6909499FE703
:1048F0007D1A0300F51E03009A1A0300CD1A030067
:10490000633B0300DE1A0300E21A03000B1B0300E3
:104910003B1B0300621B03002DE9F84F2DED028BBA
:1049200004460068334F0368DFF8D0A05B68DFF807
:10493000D0809847002581464D4556DA20680368A7
:104940005FFA85FB1B6A59469847061E35DD2068CD
:10495000036859465B6998476068036831465B693C
:10496000B0EE408A984708EE900A606803683146C6
:104970009B699847F8EEE88A07EE900AF4EEC88A39
:10498000F1EE10FA1BD5A06803683946DB6898473A
:10499000A06803683146DB699847A0681649036838
:1049A000DB689847A0680368B0EE480A5B6A9847DE
:1049B000A068036841461B6998470135BCE7F8EEDB
:1049C000E77AF4EEC87AF1EE10FAF6DDA068036833
:1049D0003946DB689847A06803683146DB69984729
:1049E000A06803685146DB68DBE7BDEC028BBDE8DD
:1049F000F88F00BF34250300D1180300EB18030023
:104A0000E618030010B504468068114903685B6B23
:104A10009847606803681B6898472046FFF77CFF4B
:104A200060680368DB68984780B1A068094903683B
:104A30005B6B9847A068084903685B6B9847A06860
:104A400004490368BDE810405B6B184710BD00BF08
:104A50002E1703009D1703006517030010B50446C9
:104A600008F08EFCD4F8C830C01A43F69723984259
:104A700008D908F085FCC4F8C8002046BDE81040FD
:104A8000FFF7C0BF10BDFFFF10B590F8D03004464F
:104A9000002B56D0A068304903681B699847A0686E
:104AA0002E4903681B699847A0682D4903681B6954
:104AB0009847A0682B4903681B699847A0682A4952
:104AC00003681B699847A068284903681B699847D1
:104AD000A068274903681B699847A06825490368AF
:104AE0001B699847A068244903681B699847A06818
:104AF000224903681B699847A068174903681B6926
:104B0000984708F03DFC0023C4F8CC0084F8D0306E
:104B100008F036FCD4F8CC30C01A4EF65F23984229
:104B200019D9A068164903681B699847A068002333
:104B3000A3740368DB6C98472046BDE81040FFF77C
:104B400061BF08F01DFCD4F8CC30C01A43F697239F
:104B500098429FD8DCE710BDA51F0300031C03008B
:104B60001A1C0300391C0300581C0300761C0300A8
:104B70008E1C0300981C0300AE1C0300E41C030001
:104B80001D1D03001FB5044608F0FAFBD4F8CC3015
:104B9000C01A4EF65F239842A06803680DD91B69BE
:104BA00030499847A0680023A3740368DB6C9847DA
:104BB0002046FFF727FF04B010BD9B6C014601A8FB
:104BC0009847039B0BB3012B1AD1002101A807F0D2
:104BD00023FE90F90030302B12DD002101A807F0F0
:104BE0001BFE90F90030362B0ADC01A807F081FE8D
:104BF000013805280FD8DFE800F00C1B1D1F2130FD
:104C0000A068194903681B69984701A807F0BFFC11
:104C1000D1E70223A374A37C002BF6D000232374D6
:104C2000012384F8D03008F0ABFBC4F8CC00ECE7EB
:104C30000323EFE70423EDE70523EBE7A0680B4927
:104C400003681B699847A0680023A3740368DB6CA2
:104C500098472046FFF7D6FEDDE70623A37400231E
:104C60006374D8E71D1D030073180300A718030021
:104C70002DE9F043057C95B00446002D46D18068AF
:104C80000368DB6A9847A0683D4903681B69984739
:104C9000206803685B6898470646AE425EDD206880
:104CA0000368EAB29B6811A998472068036811A9B4
:104CB0009B699847013807284ED8606803681B68CD
:104CC0009847A5682F492B680EA89E6907F0AAFC93
:104CD0000A2208210BA807F0C4FC0BA90EA807F0B4
:104CE00052FD294907F05BFD014611A807F0DAFCE7
:104CF00011A92846B04711A807F049FC0BA807F0F6
:104D000046FC0EA807F043FC01232374237C012BEF
:104D100040F0CE80A1680B6805A89B6C9847079B64
:104D2000002B00F0C28005A807F0E3FD054600282F
:104D300030D1A068154903681B699847A068A5741D
:104D40000368DB6C98472046C4F8C850FFF75AFE4A
:104D500005A807F01CFC0FE001359EE7A0680C4990
:104D600003681B699847A0680023A3740368DB6C81
:104D700098472046FFF746FE15B0BDE8F08300BF18
:104D8000FC2103002022030031200300A92203009C
:104D900056220300431E072B00F23081206803686F
:104DA0005B68984700260746B74240F303812068B6
:104DB0000368F2B29B6811A998472068036811A99B
:104DC0009B699847854240F0F380082211A90DEBBA
:104DD000020024F014FF08220DEB020104F114007C
:104DE00024F00DFF2068036802A99B699847C4E975
:104DF0000705A668894933680EA89F6907F012FC69
:104E00000A2229460BA807F02CFC0BA90EA807F0D4
:104E1000BAFC834907F0C3FC0A220546E16908A8E9
:104E200007F01FFC08A9284607F0ADFC7D4907F0F4
:104E3000B6FC014611A807F035FC11A93046B84769
:104E400011A807F0A4FB08A807F0A1FB0BA807F026
:104E50009EFB0EA807F09BFB606803689B68984761
:104E6000A56871492B680EA85E6907F0DBFB0A2272
:104E700008210BA807F0F5FB0BA90EA807F083FC8F
:104E80006A4907F08CFC014611A807F00BFC11A938
:104E90002846B04711A807F07AFB0BA807F077FB6C
:104EA0000EA807F074FB0223237405A807F06FFB1C
:104EB000237C022B7FF460AFA1680B6802A89B6C77
:104EC0009847049B002B71D002A807F012FD431EE7
:104ED000072B064600F298802068036831465B6A1B
:104EE00098470746002840F08F80082204F11401FB
:104EF000684624F084FE206803683246DB69694610
:104F00009847142008F0F8F9A56849492B680EA8BD
:104F1000D3F8188007F086FB0A22216A0BA807F055
:104F2000A0FB0BA90EA807F02EFC424907F037FCA6
:104F30000A228146E16908A807F093FB08A94846C0
:104F400007F021FC3C4907F02AFC0A228146314641
:104F500005A807F086FB05A9484607F014FC374969
:104F600007F01DFC014611A807F09CFB11A928467B
:104F7000C04711A807F00BFB05A807F008FB08A81D
:104F800007F005FB0BA807F002FB0EA807F0FFFADD
:104F9000606803681B689847A068A7740368DB6CA7
:104FA0009847C4F8C8702046FFF72CFD02A8D0E649
:104FB0000136F9E6A668224933680EA89F6907F012
:104FC00031FB0A2229460BA807F04BFB0BA90EA8C0
:104FD00007F0D9FB1B4907F0E2FB014611A807F0D7
:104FE00061FB11A93046B84711A807F0D0FA0BA809
:104FF00007F0CDFA0EA807F0CAFA56E7A0681249E2
:1050000003681B69984750E7A068104903681B694B
:10501000984708F0B5F9C4F89C00C7E7CA22030016
:10502000E3220300F2220300F5220300C62003005E
:10503000712303007D23030013210300F3220300E7
:105040000623030026230300482303008F230300C5
:1050500010B5044608F094F9D4F8CC30C01A4EF6D6
:105060005F2398420FD9A068094903681B699847D4
:10507000A0680023A3740368DB6C98472046BDE852
:105080001040FFF7BFBC2046BDE81040FFF7F0BD61
:105090001D1D03002DE9F043044693B008F070F99C
:1050A000D4F8CC30C01A4EF65F23984210D9A068CD
:1050B000604903681B699847A0680023A3740368CC
:1050C000DB6C98472046FFF79DFC13B0BDE8F083EA
:1050D000257C002D2CD1A0680368DB6A9847A06866
:1050E000554903681B699847206803685B689847BF
:1050F0000646AE4237DD20680368EAB29B680FA916
:105100009847206803680FA99B69984701380728CA
:1051100027D8606803681B689847A06847490368F8
:105120001B6998470323237408F02AF9C4F89C00EC
:10513000237C032B40F0A38008F022F9D4F89C30A4
:10514000C01A4EF660239842A068036810D91B6904
:105150003B4998470023A068A3740368DB6C984719
:10516000B3E70135C5E7A068364903681B69A2E7C4
:105170009B6C01460CA898470E9B002B7CD03249B3
:105180000CA807F019FB054698B1A0682F490368E1
:105190001B6998470025A068A5740368DB6C9847D5
:1051A000C4F8C8502046FFF72DFC0CA807F0EFF913
:1051B0008BE70CA90FA807F075FA0FA92046FFF797
:1051C000D1F90FA807F0E3F9A068D4F8C06003682C
:1051D00026B91B691E4998472674E6E7DB681D4916
:1051E0001D4F984704F1A006D4F8C020D4F80880D9
:1051F000AA42D8F8003031DDD3F8149056F8043BB9
:1052000004EB03130A22196A0FA807F02AFA0FA960
:105210004046C8470FA807F0BAF9D4F8C030013BA0
:105220009D4204DAA06803683946DB689847013577
:10523000DAE700BF1D1D0300C51F0300E81F0300C0
:105240004120030056220300527103005420030042
:10525000602003008D200300A0200300DB6A40468D
:105260009847A068A0490368DB6898470423237423
:1052700008F086F8C4F89C000CA807F088F9237C95
:10528000042B5CD108F07CF8D4F89C30C01A4EF6A0
:1052900060239842A06803683FF659AF9B6C0146B3
:1052A00006A89847089B002B46D090490FA807F006
:1052B000B9F90FA906A807F093FA05460FA807F059
:1052C00066F9002D00F0E7800023C4F8C430606860
:1052D0000523237403689B689847D4F8C430A568F5
:1052E000834928330CA854F8233004EB03131F6AB6
:1052F0002B685E6907F096F90A2239460FA807F075
:10530000B0F90FA90CA807F03EFA7A4907F047FA5E
:10531000014609A807F0C6F909A92846B04709A817
:1053200007F035F90FA807F032F90CA807F02FF9AC
:1053300008F026F8C4F89C0006A807F028F9237C9A
:10534000052B7FF4C2AE08F01BF8D4F89C30C01ACD
:105350004EF660239842A06803683FF6F8AE9B6C57
:10536000014603A89847059B002B00F0BA8003A8CC
:1053700007F0BFFA431E072B054600F29C80206809
:10538000036829465B6A98470746002840F09380E7
:10539000D4F8C4302833082254F8236004EB0611F3
:1053A000143101A824F02BFC206803682A46DB692D
:1053B00001A904EB06169847142007F09DFFD6F8C4
:1053C0002090A6684C49336809A8D3F8188007F0E4
:1053D00029F90A2249460CA807F043F90CA909A8A3
:1053E00007F0D1F9454907F0DAF90A228146294642
:1053F0000FA807F036F90FA9484607F0C4F901468F
:1054000006A807F04FF906A93046C04706A807F0DE
:10541000BEF80FA807F0BBF80CA807F0B8F809A869
:1054200007F0B5F8D4F8C430D4F8C0200133934263
:10543000C4F8C43049DA606803689B689847D4F8B8
:10544000C430A5682A4928330CA854F8233004EB4B
:1054500003131F6A2B685E6907F0E4F80A223946D5
:105460000FA807F0FEF80FA90CA807F08CF9214946
:1054700007F095F9014609A807F014F909A928468B
:10548000B04709A807F083F80FA807F080F80CA828
:1054900007F07DF814E0A068194903681B69984774
:1054A000A06825740368DB6C9847C4F8C850204690
:1054B000FFF7A8FA40E7A068124903681B699847FC
:1054C00007F05EFFC4F89C000BE0A0680E4903687B
:1054D0001B699847606803681B689847A774C4F8FD
:1054E000C87003A862E600BFA3200300633B03006B
:1054F000CA200300C7200300712303000821030012
:10550000E72003008F2303001821030010B590F853
:10551000D0300446002B51D0A0682E4903681B6987
:105520009847A0682C4903681B699847A0682B49D5
:1055300003681B699847A068294903681B69984755
:10554000A068284903681B699847A0682649036832
:105550001B699847A068254903681B699847A0689C
:10556000234903681B699847A068224903681B699F
:105570009847A068174903681B69984707F000FF20
:105580000023C4F8CC0084F8D03007F0F9FED4F83A
:10559000CC30C01A4EF65F23984219D9A06816493C
:1055A00003681B699847A0680023A3740368DB6C39
:1055B00098472046BDE81040FFF724BA07F0E0FE08
:1055C000D4F8CC30C01A43F697239842A4D8DCE72D
:1055D00010BD00BFA51F0300061E03001F1E030011
:1055E0003B1E0300531E03006E1E0300821E0300B9
:1055F000971E0300E41C03001D1D03001FB5044695
:1056000007F0BEFED4F8CC30C01A4EF65F239842A5
:10561000A06803680DD91B692E499847A06800232C
:10562000A3740368DB6C98472046FFF7EBF904B0DE
:1056300010BD9B6C014601A89847039B0BB3012B3F
:105640001AD1002101A807F0E7F890F90030302BBB
:1056500012DD002101A807F0DFF890F90030352BAA
:105660000ADC01A807F045F90138042815D8DFE85D
:1056700000F00C1C21252900A068174903681B694C
:10568000984701A806F083FFD1E70723A3740023FE
:1056900063744FF0FF33C4F8E030012384F8D03056
:1056A00007F06EFEC4F8CC00EBE70823A3740023D8
:1056B0006374F2E72046FFF721F8EEE72046FFF794
:1056C000A1F8EAE7A068054903681B699847012328
:1056D000ECE700BF1D1D0300BD230300F123030001
:1056E0002DE9F04F04468DB007F04AFED4F8CC30D7
:1056F000C01A4EF65F239842A06803680ED91B6952
:1057000098499847A0680023A3740368DB6C984706
:105710002046FFF777F90DB0BDE8F08F657C002DCE
:1057200040F08A80DB6A9847A0688F4903681B694C
:105730009847206803685B6898470646A068036836
:105740001B6926B9894998470623A374E3E788496A
:10575000DFF858A2DFF858929847B54242DA20683D
:105760000368E9B21B6A9847071E05F10105F4DDDD
:105770006068036839465B699847804660680268DC
:105780003946926990478346A06802685146D268BC
:105790009047A06802682946D2699047A0680268CD
:1057A0004946D2689047A06802683946D269904756
:1057B000A06870490268D2689047A06802684146B4
:1057C000D2699047A0686C490368DB689847A06875
:1057D00003685946DB699847A068684903681B69F4
:1057E0009847BAE7A56866492B6806A89F6906F03E
:1057F00019FF0A22314603A806F033FF03A906A8C1
:1058000006F0C1FF5F4906F0CAFF014609A806F08D
:1058100049FF09A92846B84709A806F0B8FE03A819
:1058200006F0B5FE06A806F0B2FE0123637407F089
:10583000A7FDC4F8CC006EE79B6C014603A898470F
:10584000059B002B4DD0504906A806F0EBFE06A99B
:1058500003A806F0C5FF054658B94C4909A806F04B
:10586000E1FE09A903A806F0BBFF054609A806F05A
:105870008EFE06A806F08BFE4DB1A0684449036871
:105880001B6998470623A3740023637429E0637C93
:10589000012B2FD103A807F02CF8064620680368D7
:1058A0005B689847002E0346A0681EDD9E421CDC04
:1058B000731EC4F8E03003683649DB689847A06877
:1058C000036831461B6A9847A068334903681B691F
:1058D00098470223637484F8EC5007F051FDC4F834
:1058E000CC0003A806F053FE15E703682B491B699B
:1058F0009847F6E7022B5DD1059B8BB9A06884F829
:10590000EC50036826491B699847A068254903683D
:105910001B69984703236374002384F8ED30DCE7A8
:1059200003A806F0E6FF00F13703B42B0546A06894
:1059300000F2BD8007EE905AF8EEE77A0123C4ED3D
:10594000397A84F8EC3003681749DB689847A06817
:10595000036829461B6A9847A068084903681B69C1
:10596000D2E700BF09240300472403007324030087
:10597000A2240300BA240300C5240300A11F0300CE
:10598000D0240300E8240300AD4D0300FC240300F1
:10599000032503002B2503003C2503008525030078
:1059A000A725030010260300BF25030034250300AC
:1059B000B3240300032B94D1059B002B49D1A0688D
:1059C00084F8ED5003683E491B699847206894F8B5
:1059D000E01003681B6A9847061E6CDD6068036868
:1059E00031465B69984705466068036831469B69A4
:1059F000984794F8EC2003463AB1D4ED397AFDEE9D
:105A0000E77ACDED017A9DF9045094F8ED203AB192
:105A1000D4ED3A7AFDEEE77ACDED017A9DF90430C6
:105A200060680268314617692A46B847A068254968
:105A300003681B699847A068234903681B69984756
:105A4000606803681B689847A068204903681B6961
:105A500017E703A806F04DFF00F13703B42B054606
:105A6000A06824D807EE905A94F8EC30F8EEE77A64
:105A700053B194ED397AB4EEE77AF1EE10FA03D827
:105A8000036813491B6933E70123C4ED3A7A84F8AC
:105A9000ED3003680F49DB689847A0680368294622
:105AA0001B6A9847A0680C4903681B698DE7036867
:105AB0000A491B691CE7A068094903681B69B9E723
:105AC00058260300C1260300242703000E250300E7
:105AD0006F260300AA260300A11F0300D725030099
:105AE000E62603002DE9F04704468CB007F048FC99
:105AF000D4F8CC30C01A4EF65F239842A0680368F1
:105B00000ED91B697F499847A0680023A3740368D6
:105B1000DB6C98472046FEF775FF0CB0BDE8F087B8
:105B2000657C002D2FD1DB6A9847A0687649036811
:105B30001B699847206803685B6898470646A06819
:105B400003682EB91B69714998470623A374E4E7DB
:105B5000DB686F499847A06803683146DB6998475E
:105B6000A0686C4903681B699847A0686A49036884
:105B70001B6998470223637484F8EC5007F000FC1B
:105B8000C4F8CC00C9E79B6C014603A89847059B65
:105B9000002B3DD0614906A806F044FD06A903A8E4
:105BA00006F01EFE054658B95D4909A806F03AFD03
:105BB00009A903A806F014FE054609A806F0E7FCAB
:105BC00006A806F0E4FC4DB1A068564903681B69BD
:105BD00098470623A3740023637419E0637C022BA7
:105BE0003AD1059BC3B9A06884F8EC5003684E49CC
:105BF0001B699847A0684D4903681B6998470323B0
:105C00006374002384F8ED3007F0BAFBC4F8CC00CD
:105C100003A806F0BCFC80E703A806F06AFE00F1CA
:105C20003703B42B0546A06867D807EE905AF8EE04
:105C3000E77A0123C4ED397A84F8EC3003683C49F3
:105C4000DB689847A06803682946DB699847A06825
:105C5000384903681B69CCE7032BD9D1059BEBB905
:105C6000A06884F8ED50036833491B6998472068A1
:105C700003685B68984794F8EC308146A068002B75
:105C800066D194F8ED30002B62D103682B491B6973
:105C90009847A0682A4903681B6999E703A806F09A
:105CA00028FE00F13703B42B0546A06825D807EE7F
:105CB000905A94F8EC30F8EEE77A5BB194ED397ACB
:105CC000B4EEE77AF1EE10FA04D803681D491B69B7
:105CD00098479DE70123C4ED3A7A84F8ED300368D4
:105CE0001949DB689847A06803682946DB6998472B
:105CF000A068104903681B69B8E7036813491B696A
:105D0000E6E700BF092403004021030073240300D9
:105D1000612103007F2103003C250300AD4D0300FA
:105D2000FC24030003250300A7250300102603001D
:105D3000BF250300A11F030058260300892103008B
:105D40000E2503006F260300AA260300D7250300B3
:105D5000036826491B69984700252F464D4533DACD
:105D600020680368E9B21B6A9847B0F1000829DD92
:105D70006068036841465B69984706466068036847
:105D800041469B69984794F8EC2003463AB1D4ED1C
:105D9000397AFDEEE77ACDED017A9DF9046094F849
:105DA000ED203AB1D4ED3A7AFDEEE77ACDED017A05
:105DB0009DF90430606802684146D2F810A032466E
:105DC000D04701370135C9E7002F3FF462AFA06823
:105DD000074903681B699847A068064903681B695F
:105DE0009847606803681B68984752E7A121030041
:105DF000C1260300C721030008B5002380F8DC306A
:105E0000044680680C4903680C4D1B699847A068DC
:105E10000B4903681B699847A0680A4903681B6916
:105E20009847A068036829461B69984742F210709A
:105E300007F062FAF5E700BFFF180300A11903009D
:105E40002D1903006919030038B590F8DC300446B9
:105E5000002B45D007F094FAD4F8D430C01A47F29A
:105E600030539842A06806D9036825491B699847B2
:105E70002046FFF7C1FFD4F8D83022490133C4F8D7
:105E8000D8300368DB689847A068D4F8D810036856
:105E9000DB699847A0681C490368DB689847A068DD
:105EA000036805211B6A9847206803681B689847A8
:105EB000206803685B689847051E12DDA0681349D7
:105EC0000368DB689847A06803682946DB69984740
:105ED000A0680F4903681B699847002384F8DC30E9
:105EE00038BDD4F8D830042B04DDA0680949036814
:105EF0001B69BCE74FF4FA60BDE8384007F0FCB915
:105F00004E1D0300801D0300971D03009C1D030010
:105F1000A31D0300CA1D030010B590F8DC30044631
:105F20001BB1BDE81040FFF78FBF837C082B33D82F
:105F3000DFE803F0050C13171B1F232A2E00FEF7C2
:105F40008DFD2046BDE81040FEF7C2B9FEF79CFD6E
:105F50002046BDE81040FEF715BEBDE81040FFF733
:105F600077B8BDE81040FFF795B8BDE81040FEF7E0
:105F700033BABDE81040FEF7B3BAFFF7C7FA2046C0
:105F8000BDE81040FFF73ABBBDE81040FFF7A8BBE3
:105F9000BDE81040FFF7A6BD10BDFFFF10B50446D9
:105FA0008068094903681B69984707F0E9F90023ED
:105FB000C4F8D8300123C4F8D40084F8DC3020467B
:105FC000BDE81040FFF740BF1518030010B50446A8
:105FD000006803681B689847206803685B689847F7
:105FE00038B9044800F05CFC2046BDE81040FFF7DB
:105FF000D5BF10BDFB17030010B50446FEF750F9DE
:106000002046FFF7E3FF2046FEF75EF90023A37466
:1060100010BD7047014806F004BA00BF20060020FA
:10602000014806F021BA00BF20060020014806F012
:10603000F3B900BF20060020014806F00BBA00BFEC
:1060400020060020014806F0F5B900BF2006002018
:106050001FB50A2201A806F004FB01A9044806F0B6
:10606000DBF901A806F093FA05B05DF804FB00BF68
:10607000200600201FB50A2201A806F0F2FA01A9A5
:10608000044806F0E7F901A806F081FA05B05DF8CA
:1060900004FB00BF200600201FB5022101A806F066
:1060A00015FB01A9044806F0B7F901A806F06FFA3C
:1060B00005B05DF804FB00BF200600201FB50221DB
:1060C00001A806F003FB01A9044806F0C3F901A8E2
:1060D00006F05DFA05B05DF804FB00BF2006002065
:1060E00010B50349044606F02FFA204610BD00BF44
:1060F00020060020014806F08BB900BF20060020D2
:10610000014806F09DB900BF2006002010B504210B
:10611000044609F06DFA204610BDFFFF0149024810
:1061200006F080BA762D0300BC040020014806F07A
:106130002EBA00BFBC04002010B54FF4165105481C
:10614000044C05F083FB204605F07EFB0028FAD0C6
:1061500010BD00BF2006002008B5044805F0BDFBB7
:106160000028D4BF0020012008BD00BF2006002069
:10617000F0B585B00F4607F003F91949194D0646E9
:1061800001A806F04FFA07F0FBF8801BB84223D2B3
:10619000284605F0A2FB0028F5DD284605F0FEFBA9
:1061A00044B20A2C01D00D2C0CD1039B002BEAD059
:1061B00001A806F09EFB044601A806F0E8F9204677
:1061C00005B0F0BD204623F023FB0028DBD021469C
:1061D00001A806F0CDFAD6E74FF0FF34ECE700BF98
:1061E000762D030020060020F0B585B01746044642
:1061F00007F0C6F81749184D064601A806F012FA2E
:1062000007F0BEF8801BB8421FD2284605F065FB98
:106210000028F5DD284605F0C1FB41B20A2901A896
:1062200001D00D290ED106F03BFB01A806F02CFB96
:1062300001A9204606F0A0F901A806F0A8F9204619
:1062400005B0F0BD06F094FADAE70249204606F000
:10625000E9F9F1E7762D030020060020F0B51B4E8A
:106260001B4D1C4F85B00446304605F036FB38B355
:10627000304605F093FB41B20A2901D00D291BD10C
:10628000AB68A3B1124901A806F00CFA11491048F5
:1062900006F012FA01A806F003FB01A9204606F059
:1062A0006BF901A806F073F9204605B0F0BD394638
:1062B000284606F001FAD7E7284606F059FAD3E750
:1062C0000449204606F0AEF9EEE700BF20060020A4
:1062D000BC040020762D030010B5074C064805F0DD
:1062E000FCFA18B1204605F059FBF7E703490448CA
:1062F000BDE8104006F0E0B920060020762D03002E
:10630000BC04002013B503680A469B68694604462E
:10631000984730B1236869461B692046984702B008
:1063200010BD9FED010AFAE70000FEC213B5036835
:106330000A469B6869460446984730B12368694617
:106340009B692046984702B010BD4FF0FF30FAE736
:10635000043000F0E6BD08B5043000F001FD08BDD2
:10636000043000F0DCBC07B5011D684600F05DFE9E
:1063700003B05DF804FB0022043000F0DBBE08B57A
:10638000043000F0DEFE431E9BB2082B28BF002025
:1063900008BD4B1E072B2DE9F34104460F4617D8C5
:1063A00003685B68984700268046B04515DD236882
:1063B000F2B29B68694620469847054630B123688B
:1063C00069469B6920469847874202D00136ECE730
:1063D0000125284602B0BDE8F0810025F9E7082A2A
:1063E00013B511D8041D12B2204600F0B9FE642086
:1063F00006F082FF6846214600F017FE642002B0D6
:10640000BDE8104006F078BF02B010BD10B5044BD7
:10641000044640F8043B00F04FFC204610BD00BF8E
:10642000B42703002DE9F3410646406803685B6822
:10643000984700248046444516DA70680368E7B23E
:106440009B683A4669469847054608B90134F2E721
:106450007068036839461B6A984701380728F5D9E0
:10646000284602B0BDE8F0810025F9E710B54C1EC2
:10647000072C9EBF40184273837510BD4B1E072B1F
:106480009ABF401890F90D007D2070474B1E072BD6
:106490009ABF401890F916006FF03600704700F16F
:1064A0000D037D211630C92203F8011B83421A72A5
:1064B000FAD170472DE9F04F2DED068B0023DDB0AA
:1064C000064634AD18464FF0FF32E91808745A51A9
:1064D0001433A02BF9D1706803685B689847814634
:1064E00070680368DB6898474FF0000A4FF01408A3
:1064F000CA4530DABAF1080F2DD0706803685FFA28
:106500008AF49B68224614A9984710B90AF1010A37
:10651000EEE77068036821461B6A98470746706873
:10652000036814A91B6998477B1E072BB0EE408AAD
:10653000ECD808FB03F4201D082214A9284423F0FA
:106540005EFB5CAB2344012243F8A07C03ED258A6B
:1065500003F8902CDAE741494148DFF81C91DFF855
:106560001CA1DFF81CB105F06BFF3E493C4805F06B
:1065700067FF3A493A4805F063FF35AD00242B7BAD
:106580000134B3B92346384A802114A824F0DEF937
:1065900014A9334805F068FF082C05F11405EED165
:1065A0002E492F4805F04CFF5DB0BDEC068BBDE8D1
:1065B000F08F0DF1300800211C220DA8C8F8001042
:1065C00023F041FB4146284600F0A0F9331995ED30
:1065D000028A93F90D2093F9163008EE902AB8EE4E
:1065E000E8AA09EE103AB4EEC8AAF1EE10FAF8EEF5
:1065F000C99A30D4F4EEC89A1C4B1D4FF1EE10FA34
:10660000D8BF1F4655F8043C0B9318EE100A21F032
:10661000CBFFB4EEC8AAF1EE10FAF4EEC89A4CBF64
:106620004A465246F1EE10FACCBF4B465B46CDE9E6
:1066300007370B9B0592CDE9020100938DED069A79
:10664000CDED048ACDF8048023460A4A802114A89F
:1066500024F07CF99CE7064FD4E700BFEC27030049
:10666000200600204A28030020290300032A0300F3
:10667000DE270300E4280300F8290300FF290300B4
:10668000DC2703002DE9F04F074640680368B1B0EE
:106690005B689847002581462C464FF00C0A4D4513
:1066A00020DA78680368EEB29B68324608A99847FA
:1066B000B0B17868036831461B6A9847431E072BC0
:1066C00080460DD90AFB04F618AB301D1844082289
:1066D00008A923F094FA30AB1E44013446F8608CCC
:1066E0000135DCE74FF00C0819AB08FB04380DF15D
:1066F00070094FF0000A013C08AE544521DD0AF153
:10670000010AA9F10C0B4F46A9F11005474502D12A
:1067100009F10C09F1E708223946584623F060FADE
:1067200000280CDD95E807003B1F86E8070093E88A
:10673000070085E8070096E8070083E807000C37A4
:10674000E4E71A491A481B4F194E05F079FE1A4919
:10675000174805F075FE1549154805F071FE19AC8E
:106760004FF00009444519D01422002102AD03A8BE
:10677000CDF8089023F067FA2046294600F0C6F8C5
:10678000009554F8043C3A46402108A824F0DEF86D
:1067900008A9304605F068FE0C34E3E703490448D5
:1067A00005F04EFE31B0BDE8F08F00BFB829030000
:1067B00020060020AA290300D82903002DE9F04172
:1067C0000646406886B003AD0368002403946C60FD
:1067D0002C725B6898474FF001080746BC4215DAF7
:1067E00070680368E2B29B6801A998477068036803
:1067F00001A99B699847431E072B9CBF06ABC01895
:1068000004F1010498BF00F80C8CE7E719491A4815
:10681000194E1A4F05F0FCFD01242B5D43B12146B2
:106820000A22304605F06AFE3946304605F0F0FD92
:106830000134092CF1D110480F4E104F05F0FAFD2C
:106840000F490D4805F0E4FD01242B5D43B92146B5
:106850000A22304605F052FE3946304605F0D8FD92
:106860000134092CF1D1044805F0E4FD06B0BDE87F
:10687000F08100BFCA28030020060020012A03007F
:106880009429030010B5054B8260C0E90031002354
:1068900004460373FFF703FE204610BD182A0300C9
:1068A00038B5064C06490546204605F0B1FD294697
:1068B0002046BDE8384005F0D7BD00BF20060020C7
:1068C000822A030038B5064C06490546204605F0E5
:1068D0009FFD29462046BDE8384005F0B1BD00BF08
:1068E00020060020822A030038B5064C06490546DA
:1068F000204605F08DFD29462046BDE8384005F0CC
:10690000B3BD00BF200600207A2A03002DE9F84F0E
:106910000025DFF870A081460E462C464FF03A0B5A
:1069200006EB040819F805305246C4F11801404638
:1069300024F00CF80028EFB207DA1048FFF7C2FF86
:10694000002388F80030BDE8F88F0444172CF4DCED
:10695000FB070CD5072F0AD0172C05D10848FFF7E5
:10696000B1FF0023F375EEE706F804B001340135FA
:10697000082DD5D100233355E5E700BF3D2A03009C
:106980005C2A0300382A0300014808F033BE00BF28
:10699000C8040020014808F0B9BE00BFC8040020A8
:1069A00038B5056872B6EDB20021284606F094FBB2
:1069B00062B67D24013C14F0FF0428D0022006F0CA
:1069C00097FC284606F0ACFB0028F3D072B60021F5
:1069D000284606F099FB0121284606F07DFB62B6A9
:1069E0004FF4F07006F084FC72B60021284606F0E1
:1069F00073FB462006F07CFC284606F091FBB0FABB
:106A000080F4640962B64FF4CD7006F071FC204644
:106A100038BD10B511F00101047815D072B600210F
:106A2000204606F071FB0121204606F055FB0A20A6
:106A300006F05EFC0121204606F066FB62B63720B8
:106A4000BDE8104006F054BC72B6204606F05CFB70
:106A50000121204606F040FB412006F049FC0121BF
:106A6000204606F051FB62B60520E9E710B5046840
:106A700072B6E4B22046012106F02EFB002120462A
:106A800006F042FB032006F033FC0021204606F00E
:106A900023FB0A2006F02CFC204606F041FB0446AE
:106AA00062B6352006F024FC204610BD2DE9F041E9
:106AB0000546884616460827012418EA040F14BF25
:106AC000012100212846FFF7A4FF6400013FE4B242
:106AD000F3D14EB972B63146287806F0FDFA314648
:106AE000287806F011FB62B6BDE8F081F8B50746DC
:106AF0000826002501243846FFF7B8FF00B12543DA
:106B00006400013EE4B2F6D12846F8BD70B500221B
:106B10000C4655210646FFF7C9FF651E073415F8D8
:106B2000011F00223046FFF7C1FFA542F7D170BD1B
:106B30000022CC21FFF7BABF00238374C0E90233DF
:106B40000382704738B50D4604460021284606F0FA
:106B5000C3FA0023256063602046BDE83840FFF794
:106B6000EBBF2DE9F047867C04468946154616B9E9
:106B7000FFF716FF20B90020A0742082BDE8F0873F
:106B80006DB33246F0212046FFF790FF0126002723
:106B9000BA4635462046FFF769FF80462046FFF794
:106BA00065FFB8F1010F1DD101283BD1402DE2D97D
:106BB00084F810A0BAF1000F01D10123A374237A45
:106BC000002BD8D004F1080309F1FF31103413F879
:106BD000012B01F8012FA342F9D10120CEE72A466B
:106BE000EC21D0E7804504EB070310D1227CAA42B8
:106BF00012D91A7A164214BF4FF001084FF000085C
:106C0000B8F1000F0ED1082D00D86574AA461A7A83
:106C100022EA06021A720BE00CBF4FF001084FF097
:106C20000008EDE7E2194FF00108137A33431372BD
:106C3000414620467600FFF7ECFE16F0FF0604BF43
:106C40000137FFB205F1010508BF0126072FEDB29C
:106C5000A0D9ABE710B5094A0144002388420AD005
:106C600010F8014B634003F00F0402EB1313145DA3
:106C70001B7C6340F2E7184610BD00BF8B2A03005F
:106C800000220921C260C27102720270C17042709A
:106C90000121C261FF22017141718171028370473C
:106CA0000023C371037203700923C3700123C16001
:106CB000037143718371704710B50B460446FFF7AB
:106CC000DFFF20461946FFF7EBFF10BD43781BB1ED
:106CD0000021807806F018BA704743781BB1012173
:106CE000807806F011BA70470B78282B0AD005D8A7
:106CF000102B07D0222B05D0002070473B2B01D052
:106D0000422BF8E70120704710B50C4620460721BA
:106D1000FFF7A0FFE3791B1A5842584110BDF8B5A0
:106D2000C379934204460F46164610D9C068FFF750
:106D300003FF002501223946E068FFF712FF30B15A
:106D4000EBB29E4205D00135EBB29E42F2D200205A
:106D500005E039462046FFF7D7FF0028F3D0F8BDFD
:106D6000C079704738B504460D46C068FFF718FE75
:106D700095B9E068FFF7DCFE0022B421E068FFF778
:106D800095FEE068FFF772FE0546E068FFF708FE33
:106D9000B5FA85F0400938BD2946E068FFF7B6FE30
:106DA000EAE70A44914205D011F8013B002BF9D0E3
:106DB000002070470120704770B50446C0680E4639
:106DC0001546FFF7EDFDB8B13146E068FFF79EFECE
:106DD0000022BE21E068FFF769FE6E1E0835E068FC
:106DE000FFF784FE06F8010FAE42F8D1E068FFF726
:106DF000D7FD431E5842584170BD38B5054614466C
:106E0000FFF7DAFF68B1092221462846FFF7C9FFDC
:106E100040B908212046FFF71DFF237A1B1A58426C
:106E2000584138BD0020FCE738B50446C0680D461F
:106E3000FFF7B6FD98B1E06895B9FFF779FE2278C3
:106E4000E0684821FFF732FE23786BB9142006F082
:106E500053FAE068FFF7A4FD431E5842584138BD7D
:106E60002946FFF753FEEAE72046FFF72FFF1420DD
:106E700006F042FA2046FFF730FFEAE770B5044615
:106E80000D46C0681646FFF78BFD2946E068FFF700
:106E90003DFE00224E21E068FFF708FE0022B17897
:106EA000E068FFF703FE0022F178E068FFF7FEFDDF
:106EB0002B78102B04D000223179E068FFF7F6FD23
:106EC000A3792BB129462046BDE87040FFF7ACBF3F
:106ED000E068BDE87040FFF763BD1FB50B78102B6D
:106EE0000C4616D001AAFFF788FF60B122789DF802
:106EF00008303B2A01D11A060BD43F2B0BD004D803
:106F00001F2B0AD0002004B010BD5F2B07D07F2BB1
:106F1000F8D10C20F7E70A20F5E70920F3E70B206A
:106F2000F1E7F7B5044603250026E068FFF704FE05
:106F3000E6712672322006F0DFF901270122694648
:106F4000E068FFF70EFE10B369462046FFF7DCFE4F
:106F50000028F3D0E3790133E37169462046FFF757
:106F6000C3FE0028EAD0237A0133237223782BB999
:106F700069462046FFF7F6FE00B1277069462046B5
:106F8000FFF7ABFFE3788342D8D2E070D6E7E3792E
:106F90001BB9013D15F0FF05C7D103B0F0BDFFFFE0
:106FA00010F5DC5FC6BF00EE100ABAEEEC0A9FEDEA
:106FB000010A70470000FEC20938C0B202289ABF19
:106FC000024B33F8100040F2EE207047AC2A030069
:106FD00008B5C068FFF74AFD431E5842584108BD36
:106FE00070B54379044615467BB103786BB940F21E
:106FF000ED262046FFF7ECFFB0B906F0C1F9401BC3
:10700000B04211D806F077F9F3E70846FFF7D4FF4E
:1070100005462046FFF75AFE284606F06DF9204641
:10702000BDE87040FFF759BE70BD38B500230C466F
:107030000360012303700546C868FFF7B1FCE068F0
:10704000FFF776FD2278E0684421FFF72FFD06F078
:1070500097F92379686002461BB1E1782046FFF773
:10706000BFFF284638BDFFFF30B5557809781D4C65
:10707000137815F0800F08BF00243B2918D192F92E
:107080000400002814DAD8070BD59378D90724D444
:107090009A0724D413F0040F134B144818BF184652
:1070A00030BDD80000F4FC6040EAC5202043F7E77B
:1070B000D80040EAC520102940EA0400F0D1D17977
:1070C0000029EDD093790A4A02EAC000CB1A203891
:1070D000DB0193FBF1F31844E8E70648E0E70648D4
:1070E000DEE700BF0000F8FF0082FFFF80E4FFFF43
:1070F00080FF07000081FFFF8081FFFFF0B505469C
:1071000085B00E4617460024E3B29F420ED301AA73
:1071100031462846FFF771FE01340028F4D001AA59
:1071200031462846FFF7A0FF05B0F0BD0048FBE759
:1071300080E4FFFF08B5FFF7E1FFBDE80840FFF777
:107140002FBF1FB501AAFFF758FE30B19DF80630DA
:107150009DF8070000EB032000B205B05DF804FBCA
:107160007FB5144605460E46FFF7EBFFA0420FD051
:1071700001AA31462846FFF740FE48B1231201AA72
:10718000314628468DF806308DF80740FFF776FE29
:1071900004B070BD08B506F091F8002008BD2720A6
:1071A0007047704737B5FFF7FCFF01210D2005F050
:1071B00093FF00210D2005F0A7FF68460722032159
:1071C00008F07EF9BDF800301C4CC3F38413012590
:1071D000684607220521E55408F072F9BDF8003031
:1071E000C3F38413684607220621E55408F068F9C2
:1071F000BDF80030C3F38413684607220921E55423
:1072000008F05EF9BDF80030C3F384136846072226
:107210000A21E55408F054F9BDF80030C3F3841393
:1072200007220B216846E55408F04AF9BDF8003002
:10723000C3F38413E55403B030BD00BFAA0500209A
:1072400030B5836A85B004468C4601ADABB193E896
:10725000070085E807006268117883F804C0E26AD5
:107260009A6019601846626A9047A36A1BB195E854
:10727000070083E8070005B030BD2B46EBE700BFF1
:1072800010B4EFF30383103B5BB203F1C001204A5B
:10729000204C52F821006FF3104042F8210054F8BE
:1072A0002330D3E906218A421BD0186940B393F8F2
:1072B00020400F2C0BD99968496840F82210D969F1
:1072C00001328A429A610CD05DF8044B7047072C5A
:1072D00019D8996809798154D96901328A429A6129
:1072E000F2D15B680C4993F903305DF8044B5809FF
:1072F000012203F01F0302FA03F341F82030704724
:1073000098684068DCE79C68A48820F81240D7E7BA
:10731000006000401805002000E100E0F0B5EFF348
:107320000383103B5BB203F1C0022F492F4C51F88D
:1073300022006FF3104041F8220054F823305868BF
:10734000026A002A30D092F801C0DC695A69BCF1A7
:10735000010F17D094420FD0D96841B393F82000A1
:107360000F280AD80728986895BF895C31F8121051
:107370000171818001325A61F0BD986851F8221084
:107380004160F7E704F1FF3E724513D0016900291F
:10739000E0D090F9031016484D0901F01F010CFAD6
:1073A00001F140F82510D5E75A69DC69D2E7986801
:1073B0004160DFE790F903E00EF1C0064FEA5E108E
:1073C000800051F8267000F1604000F561400EF039
:1073D0001F0E0CFA0EF56FF3104741F82670C0F837
:1073E00080510560B6E700BF00600040180500202E
:1073F00000E100E010B4EFF30383103B5BB2324ACC
:10740000324C03F1C00152F821006FF3104042F8F2
:10741000210054F823008268D278920706D542688A
:10742000527A012A02D05DF8044B70475909284C62
:107430000122203103F01F0302FA03F344F8213044
:10744000BFF34F8FBFF36F8F436893F90230002B68
:107450002FDB5909203103F01F0302FA03F344F82C
:107460002130BFF34F8FBFF36F8FD0E90114237822
:1074700091F902106FF386130029237014DB01F1D8
:10748000C00C114C4B099B0001F01F018A4003F115
:10749000604354F82C1003F561436FF3104144F836
:1074A0002C10C3F880211A605DF8044B0121FFF70E
:1074B000C7BE82685DF8044B13786FF386131370B0
:1074C0000121FFF7BDBE00BF00600040180500208D
:1074D00000E100E070B5EFF30384103C314B64B27F
:1074E00053F82460736893F90230002B42DB5A0989
:1074F0002D492032012003F01F0300FA03F341F865
:107500002230BFF34F8FBFF36F8FD6E9012392F97B
:1075100002101A7800296FF386121A7015DB01F138
:10752000C00C224D4A09920001F01F0100FA01F13E
:1075300002F1604255F82C0002F561426FF31040F1
:1075400045F82C00C2F880111160DA780021D5B21C
:107550001207D97021D4EB0712D405F01405142DAD
:1075600016D0124BC03453F824206FF3104243F866
:10757000242070BDB3681A786FF386121A70E4E79E
:107580000421304605F01405FFF75AFE142DE8D10A
:1075900008213046FFF754FEE3E705213046FFF7A8
:1075A0004FFED8E71805002000E100E00060004031
:1075B000036A70B50446987800F07B0098700D4619
:1075C000217841B32261E269E5601069002841D069
:1075D000226982B1A378816800688E68E16803F04F
:1075E0000303013B22FA03F3002222619BB2B0475E
:1075F00080B9236A21789A7842F080029A7039BB68
:1076000094F802C00CF0030CBCF1020F1AD02A78D7
:10761000DA70002070BD94F802C0E0690CF0030E2F
:107620000069A2EB0E02226105EB0E02E260002867
:10763000CED19A780CF0030C42F08002BCF1020F1C
:107640009A70E4D12A8842F47E420020DA8170BD2B
:10765000002070BD9A7842F080029A7070BD00BF21
:10766000036A91F801C09A7800B502F07B0E02F02F
:107670000B029A700022C2608878587010461A78FF
:107680006CF301021A70CA789A7493F807C00A78EA
:107690000CF0A30102F05C020A43DA7183F802E005
:1076A0005DF804FB10B5D0E90721002343608B701F
:1076B00092F905202F49044650090123203002F099
:1076C0001F0203FA02F241F82020BFF34F8FBFF3ED
:1076D0006F8FE26992F90B205009203002F01F02EF
:1076E00003FA02F241F82020BFF34F8FBFF36F8FF0
:1076F000E26992F907205009203002F01F0203FAD4
:1077000002F241F82020BFF34F8FBFF36F8FE26981
:1077100092F90920500902F01F02934000F1200263
:1077200041F82230BFF34F8FBFF36F8FE369DA6800
:1077300022B1936810681B6A9847E3691B691BB103
:107740009A681868136A9847EFF31081012383F34E
:107750001088E369084A1C78D2F800014FF0004312
:10776000E3400343C2F80031D2F8003181F31088BE
:10777000002010BD00E100E0006F0440F0B5846A15
:1077800085B005460F4694466E46B4B194E80F00A6
:1077900086E80F00EB691B7884F804C02360EB6A6D
:1077A0002046C4E902736B6A9847AC6A1CB196E83C
:1077B0000F0084E80F0005B0F0BD3446EAE700BFD3
:1077C0008C46516830B4029C0D6880B91C609CF8EE
:1077D000010038B9E8784FF0010C0B346CF3051058
:1077E000E8701C60936810681B6830BC184704F18F
:1077F0000C001860EBE700BF2DE9F0470D46097853
:107800000323CB4013F0010301F1007218BF1023D2
:10781000037002F5605283785201012161F3010384
:107820000262A9696A6942620022C0E90A21C5614F
:1078300083706B7882B0044623B98378022262F3A6
:107840000103837095F90B00594B95F80AC0420962
:10785000203200F01F06012101FA06F643F82260EB
:10786000BFF34F8FBFF36F8F524A534E00F1C007E3
:107870004FEA0C1C52F827E06FF3104E42F827E055
:107880001F185FFA8CFC87F800C346F8204095F972
:10789000050095F804C04709203700F01F0E01FAD3
:1078A0000EFE43F827E0BFF34F8FBFF36F8F00F159
:1078B000C00703EB000852F827E04FEA0C1C5FFA00
:1078C0008CFC6FF3104E42F827E088F800C346F8AE
:1078D000204095F9070095F806C04709203700F0C9
:1078E0001F0E01FA0EFE43F827E0BFF34F8FBFF3E0
:1078F0006F8F00F1C00703EB000852F827E04FEA52
:107900000C1C5FFA8CFC6FF3104E42F827E088F8ED
:1079100000C346F8204095F9090095F808C04709CA
:10792000203700F01F0E01FA0EF143F82710BFF3C5
:107930004F8FBFF36F8F00F1C0074FEA0C1152F861
:1079400027C003446FF3104C42F827C0C9B283F834
:107950000013EA6846F8204072B153681B684FF480
:10796000002143F8041B216A05310091E169207868
:10797000FFF726FF0646B0B92A69FAB153681B68BB
:107980004FF0006143F8081B216A03310091E1695F
:107990002078FFF715FF064680B1EB681BB19A68A7
:1079A0001868136A9847304602B0BDE8F08700BFF8
:1079B00000E100E00060004018050020EFF31080B7
:1079C000012383F31088984B2E78D3F800214FF0D1
:1079D0000041F14022EA0102C3F80021D3F800314E
:1079E00080F31088236AE06900229A701A715A7233
:1079F0009A72DA725A83297840F20722CA40D20773
:107A000044BF4022DA7406221A7722787AB1C1681C
:107A1000013A002900F0FE800126120391B23143A1
:107A200041F006029A829A8A92B29142FBD1EA7898
:107A3000A978D20042EA01126978032900F0D780C0
:107A4000002914BFF221E221ED69D2B21A709971B6
:107A50002A7B520002F002025A736A78A978002643
:107A60001E7295F800C0D201490101F02001D2B286
:107A70000A43ACF10201012940F2BD80D2B2DA71B1
:107A80006A68917859701978567866F3010119700F
:107A9000D17899741278D97902F05C0201F0A301CF
:107AA0000A43DA710027C4E90377C4E9057790F93E
:107AB00005105E4E01F1C00E4A0956F82E80920064
:107AC00067F3104802F1604246F82E8002F56142E9
:107AD0004FF0010E01F01F010EFA01F1C2F8801102
:107AE000116090F90B1001F1C0094A0956F829A05C
:107AF000920002F1604202F5614267F3104A01F020
:107B00001F0146F829A00EFA01F1C2F88011116098
:107B100090F9071001F1C0094A0956F829A092000E
:107B200002F1604202F5614201F01F0167F3104A61
:107B300046F829A00EFA01F1C2F88011116090F9FF
:107B4000091001F1C0004A0956F82090920002F194
:107B5000604267F3104946F8209002F561420CF04C
:107B6000030C01F01F010EFA01F14CF0700CC2F889
:107B70008011116083F802C06B8923814FF6FF7872
:107B800043452DD0EFF310818EF31088284A1368F7
:107B90001BB92848C3704023C370136801331360B6
:107BA00081F31088218924480B0A1B0153FA81F1C3
:107BB00050F8213023F0011323F4404343F0040331
:107BC00040F82130EFF31081012383F3108813680C
:107BD00013B11368013B13601368B3B181F31088CC
:107BE000164B63600026304602B0BDE8F08742F0D5
:107BF0004002F22128E7BCF1020F08BF42F0100258
:107C0000FF21D2B25970DA714CE70A4A8020D37052
:107C1000D070E3E7C169097A1140090201F470618B
:107C200041F00106F9E600BF006F0440006000402B
:107C300014050020000D044000080440554943533A
:107C40002DE9F04F1E46FF23B37033786FF38203A4
:107C50008BB033708023F370554B0992554A1B6AE1
:107C600012680191C3F302618A40C3F30233DA4020
:107C7000514B07900021100A06920891059002913D
:107C80000093A2FB03BA099B009A93426EDA9DF817
:107C9000203003930027494B039ADD5DC5F3400371
:107CA000C5F3800504932B43934256D1444B33F8DC
:107CB0001780079B03FB08F8069BB3FBF8F2541EE2
:107CC000FF2C4AD802FB08F91DE0059BB9FBF3F332
:107CD0007F2B03FB00F040D90028B8BFFF30001213
:107CE000A0F5C330A0380028009AB8BF40428242B5
:107CF00040DC029BF370337843F00403A9EB0809DE
:107D0000337054B3013C4A464FEAE9735846514632
:107D100020F0C2FF019A002AD7D1A0F5C333A03BBF
:107D2000002B009AB8BF5B429A4216DD0093234BAA
:107D3000B470DA5D3378C2F3000161F386130499FD
:107D400061F3041365F3C30333707378C2F3C102A4
:107D500062F301037370019B029301370D2F9AD1D7
:107D6000089BF3B1009B099A93421DDC00200BB0E5
:107D7000BDE8F08F0293114B049AD95D33780090DF
:107D8000C1F3000060F3861362F3041365F3C303C9
:107D900033707378B470C1F3C10161F30103737080
:107DA000A7E7012308936EE703200BB0BDE8F08F2F
:107DB00000E00140A4050020A0860100E82C03009B
:107DC000F82C0300F0B5EFF30383103B5BB203F133
:107DD000C001344A344C52F821006FF3104042F88D
:107DE000210054F82300C3691B6913B1036913B15F
:107DF000F0BD036983B9D0E90824937803F07F03C9
:107E0000002143F004039370C160002CF0D0BDE862
:107E1000F0408022FFF7B2BC05785DB3066AF18AB4
:107E2000C1F30421A9421ED28478C2681F4F04F016
:107E3000030E74460BE092F800C086F80FC00131C3
:107E40001B1B2244A942C0E903230CD25BB1BEF143
:107E5000020FF0D1B2F800C04CEA070C1FFA8CFCFC
:107E6000A6F80EC0EBE732796FF3C7123271002B20
:107E7000BED1C0E7827802F003010229C1680BD0AD
:107E8000046A0D78E57002F003029B1A0A44C0E907
:107E90000323002BACD1AEE70C88056A44F47E4482
:107EA000EC81F0E7006000401805002000FEFFFFB5
:107EB00010B582B0EFF30383103B5BB203F1C00156
:107EC000574A584C52F821006FF3104042F82100F5
:107ED00054F82340E369DB6813B1A369002B49D14F
:107EE00022894FF6FF739A4275D12278236AF2B144
:107EF000D98AC80612D01B8AC3F308030193A36969
:107F0000FBB9636A2BB1042201992046FFF736FCC6
:107F100022782AB1236AD98AC906E8D1BE221A7109
:107F200023894FF6FF72934231D102B010BDA17880
:107F300001F003010229DED05B790193A369002BD4
:107F4000DFD0A278606902F0030201A921F057FE98
:107F5000D4E90521A37803F003031A44C91AC4E93C
:107F6000052129B9636A1BB101222046FFF706FCEF
:107F70002278CEE7636A0021C4E90511002BD4D032
:107F80000122204602B0BDE81040FFF7F7BB1A0AF5
:107F90001201254952FA83F351F8232022F00112ED
:107FA00022F4404242F0040241F82320EFF3108211
:107FB000012383F310881D4B196811B11968013929
:107FC00019601B681BB91A498020CB70C87082F3F6
:107FD000108802B010BDEFF31081012383F31088E5
:107FE000124B1A681AB91248C2704022C2701A683D
:107FF00001321A6081F3108822890B49130A1B0190
:1080000053FA82F251F8223023F0011323F4404353
:1080100043F0050341F82230236A227867E700BF66
:1080200000600040180500200008044014050020EE
:10803000000D044010B5EFF30384103C0B4B64B209
:1080400053F82400D0E90821937803F07B03937060
:1080500019B102220021FFF791FB054BC03453F800
:1080600024206FF3104243F8242010BD180500208F
:108070000060004010B5EFF30384103C194B64B26C
:1080800053F82400037843B9837803F00303022BE9
:1080900003D0036A5979C9B203E0036A198AC1F3AC
:1080A000080193F804C01CF0100F0CF0380206D041
:1080B00093F81CC01CF0010F08BF42F0400293F877
:1080C00004C00CF0C70C83F804C0436A0BB1FFF77F
:1080D00055FB054BC03453F824206FF3104243F88E
:1080E000242010BD180500200060004030B5436A10
:1080F00085B004468C4601ADABB193E8070085E836
:1081000007006268117883F804C0A26A9A60196057
:108110001846226A9047636A1BB195E8070083E816
:10812000070005B030BD2B46EBE700BF10B4EFF3FE
:108130000383103B5BB203F1C001144A144C52F8A4
:1081400021006FF3104042F8210054F823305A699F
:10815000D9698A4206D2D3E90240A8B1805CE070B6
:1081600001325A618A4202D05DF8044B70471A69A5
:10817000002AF9D19A685DF8044B937803F07B03E9
:1081800043F0040393707047E070E9E7006000403B
:108190001805002010B4EFF30383103B5BB203F12A
:1081A000C001174A174C52F821006FF3104042F8F3
:1081B000210054F823305A69D9698A4206D2D3E99A
:1081C0000240D0B1805CE07001325A619A698A4203
:1081D00007D2986819694079541C9C618854D3E986
:1081E0000621914206D19A68937803F03B0343F04D
:1081F000040393705DF8044B7047E070E4E700BF40
:10820000006000401805002010B5EFF30384103C17
:108210000A4B64B2012153F824008268937803F07A
:1082200003039370FFF762FFC034054B53F824201B
:108230006FF3104243F8242010BD00BF1805002042
:108240000060004010B5EFF30384103C0C4B64B2A7
:108250004FF0840C53F8240083689A7802F00302EC
:108260009A701A7983F804C00421FFF73FFFC034E5
:10827000044B53F824206FF3104243F8242010BD20
:10828000180500200060004003685969A1B190F80A
:108290002D3070B5044603F0FF0563B98A68038C7E
:1082A00096680868A1692A46B047E269C4E908529D
:1082B000012384F8333070BD704700BF70B5866B02
:1082C00082B004460B466D463EB396E8030085E84F
:1082D0000300E26B3371236832605A6912B194F87B
:1082E0002D10A1B19B6913B194F82D2052B9636B85
:1082F00030469847A36B1BB195E8030083E8030061
:1083000002B070BD9A68186813699847EFE79368E0
:1083100010681B6998472368E4E72E46D9E700BF39
:10832000EFF30383103B5BB2044AC03352F82310CF
:108330006FF3104142F82310704700BF0060004007
:1083400070B5EFF30383103B5BB2614AC03352F860
:1083500023106FF3104142F82310EFF30383103B17
:108360005C4A5BB252F823402269137BC3F30000DE
:10837000DB072CD494F82C3094F82A10994216D0AC
:1083800094F82D1009B1022B41D02046FFF77CFF55
:10839000236994F82820DA7094F82B2094F82C3074
:1083A000013A013384F82B2084F82C3070BD94F806
:1083B000333003F0FF053BBB236A93BB94F82E30A8
:1083C00063B352210123D17284F8303070BD94F828
:1083D0002D308BB194F8313073B9636AA169527949
:1083E000CA54D4E9082394F82E10013A0133C4E9A1
:1083F000082379B12269E4E7002001215423206297
:1084000084F82F10D37270BD84F8330070BD5223EE
:10841000D37270BD23695422DA7270BD5423D372B3
:1084200070BD94F82D1041B9616AA069013B405CB0
:108430000131C4E90831D07070BD94F831100029C1
:108440002ED0216884F831504869002838D08969D5
:10845000002935D0E069022832D98E68831E086869
:10846000B668F42191709BB2A2692946B047226890
:10847000E3695269916810688E68023B9BB22A4694
:108480002946B047E36922690220023BC4E9080398
:10849000012184F833100023FF209372D070CBE7C2
:1084A000636AA1695279CA54D4E90832013B0132A6
:1084B000012BC4E90832226904D0FF20D070BBE749
:1084C000012BE8D12023FF209372D070B4E700BFC6
:1084D000006000401805002010B582B0EFF3038360
:1084E000103B374A5BB252F823000269D37A6FF32C
:1084F000C303D37290F82F30ABBB90F82A1003F06F
:10850000FF0C90F82C3099421BD1036A5BB990F8AC
:108510002D1090F83040002914BF02210321A4B38C
:10852000D372FFF7CBFEEFF30383103B5BB2254A18
:10853000C03352F823106FF3104142F8231002B0F9
:1085400010BDB3B9012929D090F829C00021D172FA
:1085500082F803C090F82B200133013A80F82B20D9
:1085600080F82C30DFE7F023D3720121FFF7A6FE5D
:10857000D9E790F82D4004F0FF016CB1022BE5D152
:1085800090F829C04CF0010CE0E7F023D372937807
:1085900003F0CF039370C4E78C46D7E70190FFF751
:1085A00073FE019890F82A30012B05D190F828C06D
:1085B000026990F82C30C9E7026990F82C30C3E7C3
:1085C0001805002000600040F0B583B0EFF303848D
:1085D000103C154B64B253F82450EF68BFB16A6881
:1085E0002B6992F90D20121B18BF01226E46C3B1F0
:1085F00093E8030086E803001A706A695A60184617
:10860000B8472B691BB196E8030083E80300074BCA
:10861000C03453F824206FF3104243F8242003B0F1
:10862000F0BD3346E8E700BF1805002000600040B9
:10863000EFF30383103B5BB20649074A51F823105E
:108640000120C033087252F823106FF3104142F832
:108650002310704718050020006000400B0A1B0122
:10866000044853FA81F150F82130C3F3400300204D
:108670001370704700080440C8B2012383404AB910
:108680001A040B0A5B0103F1804303F580230020E9
:108690009A6070479AB2F4E738B50488002C4DD040
:1086A00043680021043303EBC40040F202450C464A
:1086B00040F2034C40F2044E0FE0624530D153F8D3
:1086C000042C02F0B852B2F1807F14BF41F00201D5
:1086D00044F002040833834211D01A88AA42ECD134
:1086E00053F8042C02F0B852B2F1807F03F1080372
:1086F00014BF41F0010144F001048342EDD1C943AC
:10870000CDB2012001F042FF0D4B93F8BB2414437E
:108710002C4083F8BB440120BDE8384001F006BF7F
:108720007245D7D153F8042C02F0B852B2F1807FD1
:108730000CBF44F0040441F00401CBE7FF25E0E75F
:1087400000E0014070B584B002AB012668460C46DB
:108750001546ADF80C100292ADF800600193FFF7DA
:108760009BFFEFF3108286F310881D490B681BB93D
:108770001C48C3704023C3700B6801330B6082F345
:108780001088EA034FEA1423E4B219D41B01164AF5
:10879000234442F82350EFF31082012383F310881F
:1087A0000B6813B10B68013B0B600B681BB90D49DB
:1087B0008020CB70C87082F31088002004B070BD98
:1087C00004EB0310084A52F820606FF3104642F899
:1087D000206025F4803642F820601B01D7E700BFF7
:1087E00014050020000D04400008044070B5C36A61
:1087F00084B004468C46164601AD9BB193E8070051
:1088000085E8070083F808C0226B1846C3E90026F4
:10881000A26A9047E36A1BB195E8070083E8070066
:1088200004B070BD2B46EDE78268012370B580F877
:1088300020300226B323D37180F821605379044697
:108840006FF300035371C2690D46FFF7CFFFA368B2
:10885000DE705A7942F001025A7194F82120012AFF
:1088600016D094F8212002B170BD052DFCD194F8EA
:108870002320002AF8D194F821201AB95A7A02F05C
:10888000F3025A72BF210122D97184F8232070BDEE
:10889000042DECD0082DE4D1E9E700BF30B583B05A
:1088A000EFF30383103B5BB2454AC03352F8231009
:1088B0006FF3104142F82310EFF30383103B5BB2D8
:1088C000404A52F8234094F82230B3B9A3680122F9
:1088D00084F82220DA7CD2B28DF805209DF805209C
:1088E00012F0010F5A7A14BF02F0F70202F0F302FD
:1088F0005A72AC22DA7103B030BD94F820304BB913
:10890000A3681B7A13F0080F204614BF0821042126
:10891000FFF78AFF2269A2B9A368D97CC9B28DF892
:1089200006109DF80610197941F010011971197996
:1089300041F008011971197962F30411197103B03A
:1089400030BDA369A1689A4209D0E268C97C581C6D
:10895000A061D154E3690133E36103B030BD022566
:1089600084F821504B79E2696FF300034B71204684
:108970000621FFF73BFFA3682169DD705A7942F0B9
:1089800001025A7191B9DA7CD2B28DF807209DF8B4
:1089900007201A7942F010021A711A7942F008027F
:1089A0001A711A7961F304121A71A4E7A269E168D5
:1089B000DB7C501CA0618B54E3690133E3619AE7CF
:1089C000006000401805002038B5EFF30383103B2A
:1089D0005BB2244AC03352F823106FF3104142F8BF
:1089E0002310EFF30383103B5BB21F4A52F823407E
:1089F00094F8203093B194F8213003F0FF0263B96A
:108A0000A369216999420ED0E269E068A168C05C5F
:108A1000887401330132C4E9063238BD052120468D
:108A2000FFF702FFE7E723680E4993F90E3003F1E1
:108A3000C000002B51F8205062F3104541F820503F
:108A400009DB5A09094803F01F030121603201FACA
:108A500003F340F82230A268D37943F04003D37186
:108A600038BD00BF006000401805002000E100E0B4
:108A700038B5EFF30383103B204A5BB252F8234032
:108A8000A1680B795807C3F3800217D5CA796FF331
:108A90008612C023CA7101E0013B02D0CA79520696
:108AA000FAD4EFF30383103B5BB2154AC03352F89C
:108AB00023106FF3104142F8231038BD022584F8CB
:108AC00021504B7962F300034B71E2690721204684
:108AD000FFF78CFEA168CD704B7943F001034B7119
:108AE00094F82130002BD1D1A369E269E06801320A
:108AF000C05C88740133C4E90632C7E7180500205A
:108B00000060004010B582B0EFF30383103B3E4A93
:108B10005BB252F8230083685A7A91074DD1D1B2E3
:108B200011F00C0F3CD0012280F8242090F8212075
:108B3000012A65D0016982699142C26988BF02F148
:108B4000FF324FF0030188BFC2614FF0000EA02436
:108B5000DC7180F820E080F822E093F805C06EF325
:108B6000000C83F805C090F82440002C43D1DF248A
:108B70001C709F241C7000240223C46180F82130E3
:108B8000FFF734FEEFF30383103B5BB21F4AC033A1
:108B900052F823106FF3104142F8231002B010BDB9
:108BA000CA06EFD5DA7CD2B28DF807209DF80720EF
:108BB000DA7902F0EF02DA71E4E70022A02180F80E
:108BC0002420D97180F8202080F82220597962F37E
:108BD0000001597190F8241081B9DF219F2219708A
:108BE0001A7000210223C26980F82130C16101217D
:108BF000FFF7FCFDC6E783F809E0BCE75A72F0E72F
:108C0000C2690221A1E700BF1805002000600040F2
:108C100030B5836B83B004460A466D46A3B193E832
:108C2000030085E80300E16B1A71626B1960184656
:108C30009047A36B1BB195E8030083E80300002372
:108C400084F82B3003B030BD2B46ECE70369026893
:108C50002DE9F04F1F241C705F241C70DF241C7052
:108C6000546A55682279564EDFF8608142F0E0027E
:108C70001A74E27842F0E0025A74A278120102F00B
:108C8000700242F008029A7022786478012A0CBFC0
:108C90000522042242EA4402D2B2DA70494A9542DD
:108CA0000CBFF72277225A710027B3229F71DA7125
:108CB00091F9112091F80DC0B4184FEA0C1C5FFA1D
:108CC0008CFC84F800C302F1C00548F822003E4C39
:108CD0004FEA521E54F825904FEA8E0E67F3104962
:108CE0000EF1604E44F825900EF5614E012502F01C
:108CF0001F0205FA02F2CEF88021CEF8002091F989
:108D00000F2006EB020E02F1C0098EF800C348F8EE
:108D100022004FEA521E4FEA8E0E54F829B00EF18F
:108D2000604E0EF5614E02F01F0205FA02F267F383
:108D3000104B44F829B0CEF88021CEF8002091F9EC
:108D4000102006EB020E02F1C0098EF800C348F8AD
:108D500022004FEA521E54F829B04FEA8E0E0EF14F
:108D6000604E0EF5614E02F01F0267F3104B44F89F
:108D700029B005FA02F2CEF88021CEF8002091F950
:108D80000E100E444A0986F800C348F8210001F18C
:108D9000C00001F01F018D4054F82010920002F134
:108DA000604267F3104144F8201002F561424FF031
:108DB0009F0AC2F88051156083F800A0BDE8F08FCB
:108DC00000E100E040420F00006000401805002074
:108DD00010B483B0EFF30383103B5BB2484AC03357
:108DE00052F823106FF3104142F82310EFF303837E
:108DF000103B444A5BB252F8233093F82D20BAB9A5
:108E00009A69022A1A699EBF117941F040011171D5
:108E1000D969012917D0D27CD2B28DF8072001215F
:108E20009DF8072083F82D1003B05DF8044B7047C0
:108E3000DA69002AF8D0032A0ED0022A4ED0012A7D
:108E400021D019690DE0117941F0100111711179EA
:108E500041F008011171DEE719690A7942F0400218
:108E60000A711A6A5869C97C8154D3E90721013112
:108E7000013AC3E90721002AD6D119690B7962F3B7
:108E800086130B71D0E793F82A1089B319681E4C2A
:108E900091F90F104809203001F01F0102FA01F189
:108EA00044F82010BFF34F8FBFF36F8F1969C87953
:108EB00040F08000C871087940F01000087108790E
:108EC0004FF0040C6FF3C300087181F801C04879BA
:108ED0006FF30000487183F82C20C2E719690A7902
:108EE00042F010020A710A7942F008020A71B8E7EA
:108EF00019694A7A082002F0F7024A724870B0E70E
:108F0000006000401805002000E100E0EFF303835B
:108F1000103B5BB2354AC03352F823106FF3104157
:108F200042F82310EFF30383103B5BB2304A52F850
:108F3000232092F82730002B37D192F829309BBBA1
:108F4000D36910B4002B42D11069C1796FF3C711F6
:108F5000C023C17101E0013B02D0C179C909FAD136
:108F60001368224A93F9103003F1C001002B52F824
:108F700021406FF3104442F8214009DB5A091D4C8F
:108F800003F01F030121603201FA03F344F8223099
:108F9000C3795DF8044B43F04003C3717047022965
:108FA00009D192F8300030B9704792F826100329A1
:108FB00092F82810F3D0106992F824C080F812C0FB
:108FC0000131013B82F8281082F827307047D2E93E
:108FD0000404116A013B645C84740131C2E9073105
:108FE000002BB2D05DF8044B704700BF006000401A
:108FF0001805002000E100E010B4EFF30383103BFC
:109000002B4A5BB252F8233093F829201AB193F817
:109010002720012A47D0DA69D2B11969CA796FF3DA
:109020008612C023CA7101E0013B02D0CA79520600
:10903000FAD4EFF30383103B5BB21E4AC03352F8FD
:1090400023106FF3104142F823105DF8044B704772
:1090500093F82A10F9B11968174C91F90F104809C3
:1090600020304FF0010C01F01F010CFA01F144F81F
:109070002010BFF34F8FBFF36F8F1969C87940F08D
:109080008000C87104204870487962F3000048717C
:1090900083F82CC0C2E719694B7A082203F0F70362
:1090A0004B724A70BAE793F83020002AB3D1B4E784
:1090B000180500200060004000E100E038B5EFF343
:1090C0000383103B4B4A5BB2E02152F823402369F3
:1090D0005A7A5972D506D0B202F003011FD55A78D8
:1090E000520648D4E269012184F82B10002A5ED090
:1090F00000252168DD712046FFF7A8FD94F82610B1
:10910000A2692369E56184F82810226284F82C5052
:10911000B322DA7101212046FFF77AFD12E000291F
:10912000E0D101071BD594F82B20002A48D194F8F0
:109130002910B322002914BF02210321DA7120462D
:10914000FFF766FDEFF30383103B5BB22A4AC0339F
:1091500052F823106FF3104142F8231038BD94F8F1
:109160002C20002AEED04207ECD594F82B200121C8
:10917000002AE4D1DBE70029B4D15A785506C2F3BE
:109180008011CED584F82B105A7A216802F0F702AC
:10919000496A5A72082058700A78012A0CBF0322C3
:1091A0000222DA705A7942F001025A71CAE794F841
:1091B0002C20002A9CD194F82B20002AA8D097E7D5
:1091C000E2696AB1002294F82600A169E26184F89C
:1091D0002800216284F82C20B322DA710121AEE745
:1091E00094F82C20002AEDD194F82B20002AF3D0FB
:1091F000E8E700BF180500200060004010B582B00D
:10920000EFF30384103C164B164964B253F8242044
:1092100050790B5C03F00303032B0FD0C03451F8DB
:1092200024306FF3104341F82430936823B1D2689F
:10923000CDE900206846984702B010BD936823B17D
:10924000D268CDE9002068469847064BC03453F8F1
:1092500024206FF3104243F8242002B010BD00BF59
:1092600018050020006000400346D3E902230020D7
:1092700053607047D0E90123D26930B4D2E90114B8
:1092800044F00044D0685C61D2E9045440F00040EE
:1092900041F000419861196100205D629C6230BC20
:1092A000704700BF002800DA704710B400F1604337
:1092B000114C03F561430901C9B283F8001344F866
:1092C00020200E4900F1C00200F01F0C400951F8A7
:1092D0002240800000F1604000F561406FF31044CF
:1092E000012341F8224003FA0CF3C0F880315DF805
:1092F000044B0360704700BF180500200060004069
:1093000070B5836984B004468C46164601AD9BB1A6
:1093100093E8070085E8070083F804C0E2691A6053
:109320009E60184662699047A3691BB195E80700E3
:1093300083E8070004B070BD2B46EDE790F800C04D
:10934000486EBCF1030F98BF01300AB1824227D3A7
:1093500010B4019C496BE40754BF01F01F01C1F335
:109360000441BCF1030F09D9090981F0010172B967
:10937000E9B902225DF8044B5A60704701F00C0114
:10938000A1F10401B1FA81F14909002AF0D0824229
:1093900001D30029EDD103225DF8044B5A607047D8
:1093A000BCF1030F98BF02F1FF321A60704700282A
:1093B000DFD0F0E72DE9F0470B7C0D46012101FAE3
:1093C00003F2C260920716BF002201740274D5E94D
:1093D000052103F5800303F5F0631B0242610022BF
:1093E000EE694560C0E9062184B004468360EFF36E
:1093F0001080012383F31088854B297C0229D3F840
:10940000081134BF6FF020076FF040073940C3F8F0
:109410000811D3F8083180F31088A3686F684FF4FF
:1094200025411960DA62DA639A642A78297A032A74
:109430004FEAC15107F1FF3C00F0D58084BF41EAFB
:109440000241BC46D6E9068ED9624FF0004119614F
:109450000020596199614FF0FF3158620390986282
:109460000291C3F81C80C3F820E0D6F82C80C3F822
:1094700068C0C3F864C0002A40F0A08079080139B0
:109480000291404601224FF0030C5965996500286E
:109490005DD095F800E0B76A002F71D0B97897F8E1
:1094A0000390090641EA097197F8049041EA0941DD
:1094B0009963B968C3F88C10002965D0012148B9B7
:1094C00097F81C9097F81BA04FEA496949EA4A2986
:1094D00048EA0908C3F8881040B996F8211096F8B0
:1094E0002000490741EA403148EA01084FF4AA0147
:1094F000BEF1010F196402D10021D9641965E16838
:10950000D960C3F83480C3F830C01A63697C95F918
:1095100012002246FFF7C6FE96F8221096F92400A4
:109520002246FFF7BFFE96F8231096F92500224643
:10953000FFF7B8FE2FB1397897F901002246FFF7FF
:10954000B1FE344B2360002004B0BDE8F0873178D1
:10955000F9B995F800E0B17800299CD0F778BEF110
:10956000020F4FEA071141EA87113FD04BD9032779
:109570003943B76A48EA014848F08078002F8DD116
:109580009F63C3F88870A7E7F968003918BF012105
:1095900095E795F800E07178BEF1020F4FEA811966
:1095A0004FEA011724D029D9032148EA010848EAE3
:1095B000090848EA070848F48078CCE7012A19D05E
:1095C00000901946EA68606802ABFFF7B7FEDDE974
:1095D0000210020442EA006242F0030CA368F06A3F
:1095E00042F0010251E741F480312BE70927BFE740
:1095F0000921DAE740464FF0030C46E7002914BF83
:1096000009210621D1E7002F14BF09270627AFE75C
:10961000006F04405450470030B4436893F912205F
:10962000DB69002A11DB51092E4D02F01F0C20319D
:10963000012404FA0CF445F82140BFF34F8FBFF327
:109640006F8F2949002441F8224093F92420002AF1
:1096500011DB5109234D02F01F0C2031012404FAC3
:109660000CF445F82140BFF34F8FBFF36F8F1E49B5
:10967000002441F8224093F92520002A11DB5109EA
:10968000184D02F01F0C2031012404FA0CF445F8A7
:109690002140BFF34F8FBFF36F8F1349002441F870
:1096A00022409B6AA3B193F90130002B10DB03F039
:1096B0001F045A090121A14020320A4C44F822100B
:1096C000BFF34F8FBFF36F8F074A002142F823107B
:1096D0008268C1680023036030BC18469160536300
:1096E000704700BF00E100E01805002030B4EFF340
:1096F0000383103B5BB2184A184C03F1C00152F8C7
:1097000021006FF3104042F8210054F82300446810
:1097100094F800C0BCF1010F15D1D0E90254AC603F
:109720000024AC64EC642C6552F8215064F31045BD
:1097300042F821505A090A4903F01F0360320CFA1B
:1097400003F341F82230436923B1002230BC1146B3
:10975000FFF7D6BD30BC7047006000401805002000
:1097600000E100E01E4B10B4C3600B7803F001036E
:109770004370EFF3108C012484F31088194BD3F855
:10978000082122F48012C3F80821D3F808318CF3A1
:109790001088EFF3108C84F310884278D2B9C46833
:1097A000237962F3861323718CF310884A684B780F
:1097B000D278C468D201DB01D2B2DBB26271A3718C
:1097C0000123E3710A780270074B43605DF8044B94
:1097D00000207047C26813796FF3C7131371E3E772
:1097E00000E00540006F044000434144C3684278F4
:1097F000002023F812107047EFF31083012282F348
:1098000010884278C1683AB90A7942F040020A7178
:1098100083F31088002070470A7942F080020A71B1
:1098200083F3108800207047EFF31081012383F346
:109830001088427842B9C068037962F386130371D5
:1098400081F3108800207047C26813796FF3C71343
:10985000137181F310880020704700BFEFF3108C64
:10986000012383F31088437873B9C268117963F3D5
:1098700086111171117A63F3861111728CF31088BD
:109880000023436018467047C3681A796FF3C71204
:109890001A711A7A6FF3C7121A72EFE7F0B5076AF6
:1098A0008BB0064667B3BE468C46BEE80F006C46DA
:1098B0000FC4BEE80F000FC49EE8030084E8030055
:1098C000BCE80F003D460FC5BCE80F000FC59CE883
:1098D00003008EE80300F36938469847336A6BB19A
:1098E000EE469C46BEE80F00ACE80F00BEE80F0055
:1098F000ACE80F009EE803008CE803000BB0F0BD5D
:109900000F46E8E730B58BB0EFF30383103B5BB253
:109910002E4AC03352F823106FF3104142F823103F
:10992000EFF30383103B5BB2294A52F82350002126
:109930002822684620F087F96C6894F84D3800209A
:10994000DBB284F84D08ADF80430B4F84218C1F326
:109950000012C90638D543F02003ADF804300223C5
:1099600094F8532884F8533894F8523803F01F03BE
:10997000D2B2E11884F8532891F8202860F38202CB
:1099800081F820282A681268009269466A6A03935F
:1099900028460492FFF782FFB4F84238DB0611D55F
:1099A0002B681A69127D6AB193F91530002B09DB17
:1099B0005A09084803F01F030121403201FA03F35A
:1099C00040F822300BB030BD1346DBE700600040AA
:1099D0001805002000E100E02DE9F0418AB0EFF326
:1099E0000383103B5BB23F4AC03352F823106FF33E
:1099F000104142F82310EFF30384103C3A4B66B257
:109A0000002253F82600D0E900E595F8533885F890
:109A1000532895F8527807F01F07DBB207F12002B0
:109A200085F85338130104F0FF0455F803C0CCF354
:109A300080718DF81910E958DEF810301B7B43EA6D
:109A4000D17303F001038DF81830002B46D1CCF30D
:109A50008A4305EB021205939188C1F3030301F0D9
:109A60000F0108298DF81A3035D908218DF81A1000
:109A700008AA002305EB071808EB030C01339CF838
:109A800006C202F801CB8B42F6D3DEF80030039712
:109A90002F440093442387F82038002307934FF482
:109AA0008063ADF804306946436A0493FFF7F6FE1D
:109AB000B5F84238DB070BD5002E09DB76090B4AD7
:109AC00004F01F040123403603FA04F442F8264050
:109AD0000AB0BDE8F0810029CAD1D6E72CF0604376
